:100000000C94750A0C949D0A0C949D0A0C949D0AFC
:100010000C949D0A0C949D0A0C949D0A0C949D0AC4
:100020000C949D0A0C949D0A0C94BF100C942E11F4
:100030000C949D0A0C949D0A0C949D0A0C949D0AA4
:100040000C949D0A0C949D0A0C949D0A0C949D0A94
:100050000C949D0A0C949D0A0C949D0A0C947510A6
:100060000C949D0A0C949D0A0C949D0A0C949D0A74
:100070000C949D0A0C949D0A0C949D0A0C949D0A64
:100080000C949D0A0C949D0A0C949D0A0C949D0A54
:100090000C949D0A0C949D0A0C949D0A0C949D0A44
:1000A0000C949D0A0C949D0A0C949D0A0000040077
:1000B00040000800007CFE8282FE7C0000888CFEEE
:1000C000FE8080000084C6E2B29E8C000044C6829E
:1000D00092FE6C000030382CA6FEFE80005EDE92A0
:1000E00092F26200007CFE9292F66400000202C26C
:1000F000F23E0E00006CFE9292FE6C00004CDE920E
:1001000092FE7C00FF8F070305058EFF00552A55E0
:100110002A552A55FF7F0171F1FBFFFF00006C8219
:1001200082826C00000000000000EE00000060927F
:1001300092920C000000009292926C0000000E104F
:100140001010EE0000000C929292600000006C9281
:1001500092926000000000020202EC0000006C922B
:1001600092926C0000000C9292926C002A2A2A2033
:1001700052656E646572496D6167652829203A2071
:1001800064656661756C74206272616E6368206874
:100190006974202D2064696420796F7520666F7200
:1001A00067657420736F6D657468696E673F202A98
:1001B0002A2A0000000000407F033C603C037F408F
:1001C000007D007C04047C0038545454580048548A
:1001D0007424000000000000000000000000000087
:1001E000000000000000000000000000000000000F
:1001F00000000000000000000000000000000000FF
:10020000000080000000000000000000000000006E
:100210000000000000000000000101017F0101005A
:100220007D007F0038545454580048547424000012
:1002300000000000000000000000000000000000BE
:1002400000000000000000000000000000000000AE
:10025000000000000000000000000000000000009E
:10026000000000000000000000000000000000008E
:100270000000000000000000107CC682828200FFA7
:1002800000FA007088888800FF3048800090A8E855
:100290004800000000000000000000000000000016
:1002A000000000000000000000000000000000004E
:1002B000000000BFBFBFBFAE0180408320BFA300CE
:1002C000C0AA00E0A900C0A30020BFA9AD013F4122
:1002D00082400020A1003E8241003EA1017F0681B4
:1002E00001077F00103E424121FEA1077F02010766
:1002F00002187E438141013F408101007F8101015D
:10030000003F8240007FA2047F00187E43814101AC
:100310003F408101007F810102007E07A1003E82F3
:1003200041003EA1017F068101077F00404E4A49FE
:100330003B02B4BFA38204010201BFBFB6BFBFBF6F
:10034000BFA60701061CB0E01C0701A100F082084F
:1003500000F0A100F8A200F8A507705048D810C01E
:10036000F01881080DF80008788000E01800F0D03F
:10037000486830A100F082080118FFA4810800FE3F
:1003800081080200FF10810800F0A104F0D0486845
:1003900030A501FF01810206040CF000C0F01881B5
:1003A0000807F8001870C000C038A100FFA7A80116
:1003B0000203A5000182020001A1000182020003E4
:1003C000A483020001A100038202010102A1010134
:1003D00003A2000183020201000182028103A60040
:1003E00003A20003A20003A1000183020001A400F4
:1003F0000183020001A20003820205010200201D08
:1004000003A30002A7BFBFBFBFB500F08510A100C6
:1004100090A10180008280A2838000F0A68380A248
:1004200000F0A200F0A601E0F0A202E0F080A2003D
:1004300090A10180008280A38180A48180A100F02E
:10044000B3B5003F8401A1013F03A1013F03A10017
:100450003FA1001F822001313FA4020C3F218120D7
:10046000011F20A1003FA2003FA50C3C03011E304C
:100470001C01001F30003F03A1013F03A1003FA169
:100480000D1F2D24262310202725241D01002FB306
:10049000A281808340A100C0B30080A80080834077
:1004A000A100C0A20040A800C0AE00C0A500C0BF0F
:1004B000A8A10140838284014C78A101FF0481023C
:1004C00000FCA1007C8282007CA104FE04020E06D6
:1004D000810200FF8102A4017E8382800040A2008D
:1004E000FFA101FC0EA1017884818200C6A105FF55
:1004F00030183CC680A3016640A3011F60838001C1
:10050000601FA101FE0C810200FEA101788481829E
:1005100000C6A1007C8282137C00021E60C03806E7
:10052000007CB4929A8C4000FE04020E8004BFBF8F
:10053000BFBFA100FFA500F0820800F0A101F830C4
:10054000810804F80080F010810800F0A502F80C82
:10055000028301A100FFA101F039A101E01081088F
:100560000018A104FFC060F018A50098A5010E12A4
:1005700081110131E1A105F0D04868300081080007
:10058000FE8108A400FF84110001A104FF00C0F057
:1005900018810804F80080F010810800F0A4A10080
:1005A000038302A1000182020001A10003A2000353
:1005B000A10021812201110FA5000183020001A2E7
:1005C0000003A10003A2000182020003A10003A214
:1005D000010302A48101A3000183028101A10001A2
:1005E00083020001A10003A60003A70003A10003EA
:1005F00082020301020021812201110FA4BFBFBFAB
:10060000BFBC02C0F8FC81CC814C000C81C0816071
:1006100003E0C000C081E08160070060E0800080EE
:10062000E060A507C0F0381C0C80FC7C826C01CC1B
:1006300004A200C081F005F8FCFAF2F4C0A3020C99
:10064000FCF8BFA0BC810F830C0200070F820C03D3
:100650000F04000C810D080F060040733F0F0301CB
:10066000A6023F7F60A10004830C010703A30001E1
:100670008107820F81070001A1044060301F0FBF76
:10068000A0BD01C0F881FC0200C07081FC030080A5
:10069000C06082E0020080C0826008E0FC0C00E0E4
:1006A0006C00C0E0A103C0E000C081E0006081E018
:1006B000006081E0A609C0F0381C0C0018F8FC0CA2
:1006C000A202C0F018820C01FC70A300C081F005EA
:1006D000F8FCFAF2F4C0A2020C3CF8A5BC070F0724
:1006E00000030F070300810F0206070F810D040CA2
:1006F0000400070E810C030E0F0100810FA1810F72
:10070000810C050F03000F0700810FA1810FA602C6
:100710003F7F60A101080C810FA301070F820C012C
:100720000703A400018107820F81070601004060D2
:10073000301E0FA5BC0280F8FC84C001FC1C81C0E7
:10074000816004E0C000C0E0816081E00180C0827F
:100750006002E0FC0CA509C0F0381C0C0018F8FC85
:100760000CA202C0FC7C826C01EC04A200C081F0EF
:1007700005F8FCFAF2F4C0A3030C7CF840B4BC0109
:100780000F07A4810F01070F820C040F04000F0351
:10079000A301070F820C000FA7023F7F60A103088F
:1007A0000C0F0DA30004830C010703A300018107B4
:1007B000820F81070001A1044060301E0FB5BE0208
:1007C00018D8F88218008084C001008083C082801D
:1007D00082C00280008084C00000818082C00080CE
:1007E000A50FC0F0381C0C0010988CCC6C7800C0A1
:1007F000F018820C01F870A200C081F005F8FCFA34
:10080000F2F4C0A3020C3CF8ABBD011018811F81AB
:100810001804001F070100811F010019811B041E1D
:100820000C0E1F1981180F1F09001F0F01001F0F49
:10083000000F1F1A1B1909A5023F7F60A1010E0FAF
:10084000810D810CA101070F820C010703A3000198
:100850008107820F81070001A1044060301E0FABA9
:10086000A30B0103070F1E3C78F0E0C08001810359
:100870000007810E811C8138817081E004C08103F2
:10088000070CA304030F3FFCE0A20B0103070F1E9C
:100890001C3C78F0E0C080A102010307810F020731
:1008A0000301A10180C081E0017038811C010E07A5
:1008B00081030001A301E0FCC1013F03A382038384
:1008C00001818184C100C081E0816082308218048E
:1008D000080C8CC4C68062017E7881708260004002
:1008E000A30A01070F1F3E7CF8F0E0C080A481013D
:1008F00000038107810E001C81380770E0C0C19F92
:10090000FFF8C0A8060103070F1E3CF881F0057828
:100910007C3C1E0E0781030001AA01C0F8C202E35D
:10092000F1708178813C811C001E810E000F8207CE
:1009300082038201008081C081E007703038181C7A
:100940000E06038101008080C088C089E0096163D0
:10095000676F7F7E78706040AA8101810381070103
:100960000E08AD0001B400038201A9004081E081BE
:10097000F001F898811C810E810700038101A1819B
:1009800020063070787CFCFEE781C780C382E1815D
:10099000C181810080B803C0F0F878833802F8F094
:1009A000E0A200C081E00070853881F000E0A10085
:1009B000C081E00070853881F000E0A201C0F081C4
:1009C000F800E0A10180E081F800F0AB8201810332
:1009D000810702060E0C811C00188138827001F01C
:1009E000E081C081808101818081018103820701D2
:1009F0000F0E811E011C3C82388170006081E081F5
:100A0000C08180A400C0C100DF83CE08EFFF7F3922
:100A1000003C7FFFE384C009E0F07C3F0F033C7F94
:100A2000FFE384C00BE0F07C3F0F03E0F8FE1F0300
:100A30003FC103F83E1F03C20080AF8D8000C0821B
:100A4000C182C301870F811F033F3E3CFC82F80136
:100A50007010A50780E0F0FC7F1F0703A48701A7A3
:100A60008501A88501A58101A38101A48101A702B7
:100A700006070F811F033363C383860302014161AD
:100A800081E181A181218460090301C1E0F0FC3E84
:100A90000F0301A40680F0F87E1F0F03AF0180C092
:100AA000B08180B20580C0E0F070E081C08280B18A
:100AB00007010302040C181030816002C08081819C
:100AC000010307060C1C8138047E3F0F0703A407AF
:100AD00080E0F8FC3F0F0301A2828081C0816005A5
:100AE000301018988C0C810600C3C10003A80D803B
:100AF000C0E0F0783C1E0F0787070E3C7881F002BB
:100B0000E0C080A50680E0781E0F0301A10280C02E
:100B1000E181C381C7008F818E000C811C81188107
:100B2000300020816081C08180AA0001810300061D
:100B3000810C0118308160AF0280C0208310A18237
:100B400080A20180008280A38180A2018000818038
:100B5000A283800000818000E08180010080A200EB
:100B600080A200F0A283800000818000E08180A14B
:100B70000090A28280A20180008280A38180A100D7
:100B8000F0B0AF001F83200010A1001F8220001FC3
:100B9000A1013F03A1073F00081F212010FFA1076B
:100BA0003F010003010C3F218120011F20A1003FD4
:100BB000A2001F8220003FA2043F000C3F218120A1
:100BC000011F20A1003FA2013F03A1001F822000BE
:100BD0001FA1013F03A1093F00202725241D01007B
:100BE0002FB0AF824000C083400100C0AB81020142
:100BF0008201BFB500C0A200C0BAB2011F60A3014C
:100C0000FF04810204FC0030FC868182017E808129
:100C10000200FF8102A4067EE0380EF0E01EA10271
:100C200030FC868182007E8180049C94927604A4AC
:100C30000EFE04020E04007CB4929A8C4030FC86B6
:100C40008182017E80A100FFA207FF00061C70C008
:100C5000300EB3BFBFBFA6010807B6B205C0705CB7
:100C6000467EC0A10D033CC080701E3FC000E01C4A
:100C70000700FF84110001A1010E1281110131E171
:100C8000A102F8060282010181FEA108C03E1FE018
:100C900000C01E0FF8A100FF84110001A400FFA5F1
:100CA00000FFA500FFB6B10003A40003A38103A2C7
:100CB0008103A300018402A1000183028101A2003B
:100CC0000183020001A20003A102010301A10301AB
:100CD0000300018402A50002A50002A50002B6BF20
:100CE000BFBFBFA600608FF0017060A1006081F0FF
:100CF0000070BFBFBFACC3A801C0F881FC0018A240
:100D000000F882FC0378383C1C81FC03F820003892
:100D100081FC02F8E080A10680E0F0F87C3C08A2AB
:100D200000C09FE091E000C0AAAB00FCC1003FA85A
:100D30000070C1017F01A10070C1027F0701A20004
:100D4000FEC1007FA301039FC105FE7E1F0F0301AB
:100D5000A500019F038D03C4AAAA00E082F000E071
:100D6000BE05707C7F3F0F03BFBAC4AAAAC4BF816F
:100D700080A78280A78280BFA7C4AAAAC4BB028022
:100D8000F0FEC3A20280E0FCC3A504C0E3E7C703F2
:100D9000A100C082E081C083E000C0A3008081C0C8
:100DA00085E001C080A289E081E10061ABAA003F3B
:100DB000837F907C0038A606C0F0FEFF1F0700C2AC
:100DC00006F0F8FE3F0F0300C3A20180FEC1000F32
:100DD000A10180F8C1023F0F03810100F0C20201AE
:100DE000F8FEC106BB391D1C1E8E8F81870001A233
:100DF0000A80C0E0F0F87C3E0F070301ADBFA700FA
:100E000006810F0007A482070003A40003820FA23B
:100E1000000381070003A2000381070003A48207E7
:100E20000003A1010103860781030001A101060F50
:100E300089070002AD00000000003E5B4F5B3E3EB4
:100E40006B4F6B3E1C3E7C3E1C183C7E3C181C5776
:100E50007D571C1C5E7F5E1C00183C1800FFE7C31A
:100E6000E7FF0018241800FFE7DBE7FF30483A06E9
:100E70000E2629792926407F050507407F05253F55
:100E80005A3CE73C5A7F3E1C1C08081C1C3E7F1441
:100E9000227F22145F5F005F5F06097F017F00668B
:100EA00089956A606060606094A2FFA29408047EE5
:100EB000040810207E201008082A1C08081C2A0894
:100EC000081E101010100C1E0C1E0C30383E38304E
:100ED000060E3E0E06000000000000005F0000004D
:100EE00007000700147F147F14242A7F2A1223137B
:100EF00008646236495620500008070300001C228F
:100F000041000041221C002A1C7F1C2A08083E08C0
:100F100008008070300008080808080000606000C1
:100F200020100804023E5149453E00427F400072B5
:100F3000494949462141494D331814127F1027452C
:100F40004545393C4A49493141211109073649494A
:100F50004936464949291E0000140000004034006B
:100F6000000008142241141414141400412214081F
:100F700002015909063E415D594E7C1211127C7FD7
:100F8000494949363E414141227F4141413E7F49E5
:100F90004949417F090909013E414151737F0808D0
:100FA000087F00417F41002040413F017F0814221B
:100FB000417F404040407F021C027F7F0408107F39
:100FC0003E4141413E7F090909063E4151215E7F74
:100FD00009192946264949493203017F01033F4047
:100FE00040403F1F2040201F3F4038403F631408CF
:100FF000146303047804036159494D43007F414160
:10100000410204081020004141417F040201020412
:101010004040404040000307080020545478407F7F
:10102000284444383844444428384444287F3854B9
:1010300054541800087E090218A4A49C787F080460
:10104000047800447D40002040403D007F1028444B
:101050000000417F40007C047804787C0804047818
:101060003844444438FC1824241818242418FC7CE0
:1010700008040408485454542404043F44243C40C5
:1010800040207C1C2040201C3C4030403C44281028
:1010900028444C9090907C4464544C440008364161
:1010A000000000770000004136080002010204023F
:1010B0003C2623263C1EA1A161123A4040207A38EA
:1010C000545455592155557941215454784121554D
:1010D00054784020545579400C1E5272123955559F
:1010E0005559395454545939555454580000457C75
:1010F000410002457D420001457C40F0292429F051
:10110000F0282528F07C545545002054547C547C0C
:101110000A097F4932494949323248484832324AFD
:101120004848303A4141217A3A42402078009DA017
:10113000A07D39444444393D4040403D3C24FF2497
:1011400024487E4943662B2FFC2F2BFF0929F620CC
:10115000C0887E090320545479410000447D413009
:1011600048484A32384040227A007A0A0A727D0D95
:1011700019317D2629292F28262929292630484D4D
:101180004020380808080808080808382F10C8AC9C
:10119000BA2F102834FA00007B000008142A142209
:1011A00022142A14089500220095AA005500AAAA24
:1011B00055AA55AA000000FF00101010FF001414DB
:1011C00014FF001010FF00FF1010F010F0141414A2
:1011D000FC001414F700FF0000FF00FF1414F404D7
:1011E000FC141417101F10101F101F1414141F00CC
:1011F000101010F0000000001F101010101F101031
:101200001010F010000000FF10101010101010103F
:1012100010FF10000000FF140000FF00FF00001F7F
:1012200010170000FC04F414141710171414F4041D
:10123000F40000FF00F714141414141414F700F74A
:10124000141414171410101F101F141414F4141075
:1012500010F010F000001F101F0000001F1400000D
:1012600000FC140000F010F01010FF10FF14141414
:10127000FF141010101F00000000F010FFFFFFFF10
:10128000FFF0F0F0F0F0FFFFFF0000000000FFFFB4
:101290000F0F0F0F0F38444438447C2A2A3E147E27
:1012A00002020606027E027E02635549416338440B
:1012B000443C04407E201E2006027E020299A5E7DF
:1012C000A5991C2A492A1C4C7201724C304A4D4D7A
:1012D000303048784830BC625A463D3E4949490062
:1012E0007E0101017E2A2A2A2A2A44445F4444407E
:1012F000514A444040444A51400000FF0103E0800D
:10130000FF000008086B6B083612362436060F09FA
:101310000F06000018180000001010003040FF01F8
:1013200001001F01011E00191D1712003C3C3C3C2E
:101330000000000000080B00020202000009040087
:101340000001020200000524001001052401010132
:10135000042402060524060001070581031000404D
:1013600009040100020A0000000705020240000013
:10137000070583024000000403090412010002EF84
:1013800002014041233680000101020301417264E1
:1013900075696E6F204C4C430041424C31333039FB
:1013A00000F0F89C8E8783878E9CF8F00000FEFF8B
:1013B0000303030303070EFCF80000FEFF0303030F
:1013C0000303070EFCF80000FFFF00000000000010
:1013D00000FFFF0000FEFF8383838383C7EE7C381A
:1013E0000000F8FC0E07030303070EFCF800003FA3
:1013F0007FE0C08080C0E07F3FFFFF01010101016D
:101400000101FFFF0000FFFF0C0C0C0C1C3E77E3FA
:10141000C100007FFFC0C0C0C0C0E0703F1F00001F
:101420001F3F70E0C0C0C0E0703F1F00007FFFC1E1
:10143000C1C1C1C1E3773E1C00001F3F70E0C0C0C6
:10144000C0E0703F1F000000000001FFFF0100002E
:1014500000D5F08D14A1C881CFD9F1AF20002100B3
:101460007F2C200030783030002C2073656564209C
:101470003D20002C20636C69636B73436F756E7441
:10148000203D20002C2068696464656E54696C6599
:1014900073203D20006D61726B65644D696E6573EC
:1014A000203D2000050A0F14000000C0201008088D
:1014B00008081020C00000000000000304081010FD
:1014C00010100804030000000C0E1EFC78F0E8C8A1
:1014D000E8F8783CDE1F0F077070783F1E0F171377
:1014E00013170F1E3F787070931311241FBECFEF98
:1014F000DAE0DEBFCDBF11E0A0E0B1E0EAE6F6E35E
:1015000002C005900D92AC33B107D9F726E0ACE3E9
:10151000B1E001C01D92A03BB207E1F71AE0C5E7B8
:10152000DAE004C02197FE010E942D1BC437D107C9
:10153000C9F70E94DA130C94331B0C94000087FD4A
:101540001DC0082E000C990B20914806281719067B
:10155000A9F0A4F067FD12C030914906E62F062ECF
:10156000000CFF0B3E171F0649F044F06203F00128
:1015700011248E5B994FE80FF91F4687089587FD68
:101580001EC0082E000C990B20914806281719063A
:10159000B1F0ACF067FD13C030914906462F062E1E
:1015A000000C550B3417150651F04CF06203F00196
:1015B00011248E5B994FE80FF91F8685089580E00E
:1015C0000895682F4091480680914906489FA001E0
:1015D000112490E080E0292F30E0241735074CF4E7
:1015E0002E5B394FF9012685262309F08F5F9F5F17
:1015F000F2CF0895E7EEF1E0A0E0B8E000800EBC85
:101600008111012C1197A0FDFDCF0192B9F70DB406
:101610000895FC018091E601882311F13FB7F89409
:1016200082E08093E9002091F200822F90E018166A
:10163000190614F481E090E0882339F0289844E6F4
:101640004093E5014091F1004083222339F020913D
:10165000F200211103C02BE62093E8003FBF08955C
:101660008FEF9FEF08952FB7F89483E08093E90000
:101670009091E800892F807295FF04C09091F2004C
:1016800080E4891B2FBF0895E1E0F0E00E94590B30
:10169000319728F068517C4F8F4F9F4FF9CFAB01A6
:1016A000FC010E94590B641775078E079F07C8F34A
:1016B0000895A5EDB1E02FB7F8947D918D919C919F
:1016C00066B52FBFA89B05C06F3F18F47F5F8F4F93
:1016D0009F4F22E0660F771F881F991F2A95D1F729
:1016E00008958091DD0181110DC082E08093D901C0
:1016F00084E08093DA011092DC011092DB0181E03A
:101700008093DD0189ED91E00895AB01FC010E9419
:10171000590B41505109E109F10928F068517C4FFA
:101720008F4F9F4FF6CFAB01FC010E94590B6417FE
:1017300075078E079F07C8F308954091BE01509129
:10174000BF012091BC013091BD0142175307B4F491
:101750009091E8009570E1F39091E80092FD19C036
:101760008093F1008091BE019091BF0101968F732B
:101770009927892B19F48EEF8093E8008091BE01A0
:101780009091BF0101969093BF018093BE0181E0CB
:10179000089580E00895DF92EF92FF920F931F93D8
:1017A000CF93DF93D82E8A01EB017B01E40EF51E67
:1017B000CE15DF0559F0D7FE12C0FE0184910E94BC
:1017C0009D0B21968111F4CF0FEF1FEFC801DF9120
:1017D000CF911F910F91FF90EF90DF900895888136
:1017E000EECF0F931F93CF93DF931F92CDB7DEB74A
:1017F00082E0898342E450E065E373E180E80E947F
:10180000CB0B0E94710BDC0112960D911C910115FE
:10181000110589F0D801ED91FC910280F381E02D52
:10182000BE016F5F7F4FC801099597FD04C0F801A5
:1018300000851185ECCF89810F90DF91CF911F91A9
:101840000F910895615030F02091F100FC01208348
:101850000196F8CF289884E68093E5010895AF9229
:10186000BF92CF92DF92EF92FF920F931F93CF938D
:10187000DF936C017B018B01040F151FEB015E01EF
:10188000AE18BF08C017D10759F06991D601ED9184
:10189000FC910190F081E02DC6010995892B79F723
:1018A000C501DF91CF911F910F91FF90EF90DF90D5
:1018B000CF90BF90AF9008958F929F92AF92BF92BA
:1018C000CF92DF92EF92FF920F931F93CF93DF930C
:1018D0006C017B018A0180910E01882309F458C0B4
:1018E0008091E601882309F453C08091C20180FFF2
:1018F00005C08091E00082608093E000E801B12C97
:101900008AEFA82E93E0892E2AE3922E209711F4D5
:10191000BB20B9F10E94330B811106C0AA94AA2002
:10192000B9F10E94440BF2CF8C171D0611F00CF098
:101930008C2F9FB7F8948092E9002091E80025FD54
:1019400002C09FBFE3CF282F30E0C21BD30BF701AB
:10195000815020F041914093F100FACFE20EF31E46
:10196000BB2021F09092E800B12CEBCF8091E800F1
:1019700085FDE7CF9092E800BB24B394209709F34C
:10198000F3CF5D9884E68093C101101611063CF0F8
:1019900081E090E0F6019383828310E000E0C801CB
:1019A000DF91CF911F910F91FF90EF90DF90CF903B
:1019B000BF90AF909F908F900895CF93DF931F9229
:1019C000CDB7DEB76983DC01ED91FC910280F38134
:1019D000E02D41E050E0BE016F5F7F4F09950F9011
:1019E000DF91CF9108950F931F93CF93DF938C01D5
:1019F000D0E0C0E0F801EC0FFD1F6491662341F0D8
:101A000087EE95E00E94DD0C892B11F02196F2CF34
:101A1000CE01DF91CF911F910F91089583E08093C4
:101A2000E9008091F200882319F08AE38093E800AE
:101A300008950E94330B90E00895CF93DF931F9297
:101A4000CDB7DEB7FC018485958597FD08C02FEFE3
:101A50003FEF358724870F90DF91CF910895CE0116
:101A600001960E94090B019719F4898190E0F3CF48
:101A70008FEF9FEFF0CF0F931F93CF93DF931F92C2
:101A8000CDB7DEB78C01FC018485958597FF0BC02F
:101A9000CE0101960E94090B019771F4898190E0B3
:101AA000F80195878487F801848595850F90DF91EB
:101AB000CF911F910F9108958FEF9FEFF1CFFC0110
:101AC0008485958597FD0BC09FB7F89482E080933D
:101AD000E9008091F2009FBF90E0019608959FB7C2
:101AE000F89482E08093E9008091F2009FBF90E03B
:101AF00008952D9A0895BC0190E080E00C94850B28
:101B00008FB18095807F669B88601C9B8460089560
:101B1000AF92BF92CF92DF92EF92FF920F931F93FB
:101B2000CF93DF936D3079F0C091C401D091C5019E
:101B30006A30B1F41092C7011092C6012896D09372
:101B4000C501C093C40181E090E0DF91CF911F9166
:101B50000F91FF90EF90DF90CF90BF90AF900895DE
:101B60004091C6015091C70185E0689FF0011124A2
:101B7000EB5CF14F9A01C12C80E1E82EA5E070E00A
:101B8000CA1621F0CF0101967491FC0110E000E02B
:101B9000B72FB170DB2E20383105D0F4CE01800F85
:101BA000911F80349105A0F461E081FD64E080FD27
:101BB000660F82FD6295887FE89ED0011124A20FF6
:101BC000F62EA951BE4F8C91DD20A9F0862B8C9367
:101BD00076950F5F1F4F08301105D1F6C3942F5F24
:101BE0003F4F86E0C812CACF4A5F5F4F5093C7018C
:101BF0004093C601A8CFF0948F21E9CFCF93C82F8F
:101C00000E94800D982F9C2381E09C1380E0CF914F
:101C1000089580E00C94FA0A2091C9019091C801BE
:101C200030E8939FA0011124E091CB01F091CC0109
:101C3000E40FF51FE20FF11D80838091CA01882314
:101C400089F09F5F983018F49093C801089510921E
:101C5000C8012F5F27FD03C02093C901089510928A
:101C6000C90108952F5F27FFF7CF1092C9019F5F29
:101C7000983050F31092C801089588E00C94FE0D3E
:101C8000089590E080E00895A0E0B1E0FB012D917F
:101C900090E3821718F09F5F821BFBCF91939C917A
:101CA0009111F5CF0895ECE3F1E080E8DF011D929A
:101CB0008A95E9F70895FC0101900020E9F7319732
:101CC000AF01481B590BBC0187EE95E00C945C0CEE
:101CD00088E391E00C945B0E2F923F924F925F92BB
:101CE0006F927F928F929F92AF92BF92CF92DF922C
:101CF000EF92FF920F931F93CF93DF9300D000D00A
:101D0000CDB7DEB7282E20914206309143063C83A2
:101D10002B830E94530E80E20E94E10A61E471E08D
:101D20000E94440E80E40E94E10A6DE471E00E948A
:101D3000440E69E571E0809146060E94440E81E000
:101D40009091CE01903508F080E081958A83B12C86
:101D5000A12CD12CC12C312C21943092C8018B8123
:101D60009C818430910509F4E4C00CF045C097FDD6
:101D70004EC0311010C02B813C812230310509F456
:101D80005EC00CF04BC02115310509F452C0213062
:101D9000310509F451C08091420690914306712C9F
:101DA000612C029721F47BE3672E76E0772E8CE39B
:101DB00091E040E850E098012F5F3F4FF8016491B7
:101DC00067FF53C0762F707609F449C066FB77270A
:101DD00070F971956F71FF24F394F60EB82FFC0122
:101DE0007193AE2FAB1BAF15D8F370E06F5F7F4FD1
:101DF000860F971F89014EC0EB81FC81E630F1050B
:101E000009F497C00CF4B5CF379709F4B2CF8CE63C
:101E100091E00E94F30C0E94680EFFCF8B819C81A1
:101E20008530910579F08730910579F0039709F0B5
:101E3000B2CF03EE1CE0AFCF09E014E0ACCF01E07D
:101E400016E0A9CF00E618E0A6CF8091410603EB8B
:101E500012E0833008F49FCF07E31BE09CCF0E5FB6
:101E60001F4FF90174919801B5CFFF24F394F60E3A
:101E7000F901182FDC0174917D9331967A2F711B33
:101E80007F15C8F370E06F5F7F4F8901060F171F42
:101E9000860F971F4F19510909F08DCF26015594D0
:101EA00047946CE3862E61E0962EF12CE12CF32D05
:101EB000F170F9839E2D20E8E216F10409F491C037
:101EC000F40181914F0182256114710429F120915F
:101ED0004106E0913B06F0913C062415150421F0E3
:101EE000E0913D06F0913E06409140069417F8F0CF
:101EF00020913F0650E030E0BA01620F731FE616F2
:101F0000F706ACF4998191110DC09701241B350B94
:101F1000E20FF31FE4918E2B0E940C0EEFEFEE1AEE
:101F2000FE0AC8CF241B350B2E0D3F1DF1CFE0E07C
:101F3000F2CFF12CE12C632DC70143E095958795F5
:101F40004A95E1F70E94BF0AEE2DE770F0E085FFA9
:101F50006AC0EC5EFE4FE49187FF02C0FA81EF2772
:101F6000822D8E270E940C0E2FEFE21AF20A30E625
:101F7000E316F10401F7F12CE12CC5018D549E4FBD
:101F80003C01C601880F991F880F991FFC01E45C72
:101F9000FE4F4F01F301EE0DFF1D8491F70123E089
:101FA000F595E7952A95E1F7E80DF91DE081EE2317
:101FB00071F0E053FF0B93E0EE0FFF1F9A95E1F7EE
:101FC0009E2D9770E90FF11DE45EFE4FE4918E2B7C
:101FD0000E940C0EFFEFEF1AFF0A20E2E216F10456
:101FE000C9F633943FEFC31AD30A80E2A80EB11C9E
:101FF00098E03912B2CE0F900F900F900F90DF91B2
:10200000CF911F910F91FF90EF90DF90CF90BF90F5
:10201000AF909F908F907F906F905F904F903F9088
:102020002F900C94090E86FF03C0E45FFE4F93CF00
:10203000282F2F77203119F4EC5FFE4F8CCF9FEFC4
:10204000920F993048F498E0299F90011124E20FF3
:10205000F31FEC54FF4F7FCFE455FF4F7CCF8F929F
:102060009F92AF92BF920F931F93CF93DF93CDB701
:10207000DEB7A1970FB6F894DEBF0FBECDBF19A291
:10208000423008F44AE08E010F5D1F4F842E912CE0
:10209000B12CA12CA50194010E94FC1AE62FB901D4
:1020A000CA01EA30F4F4E05DD801EE938D01232BF0
:1020B000242B252B79F790E080E0109719F0CD01C3
:1020C0000E945B0EA1960FB6F894DEBF0FBECDBF87
:1020D000DF91CF911F910F91BF90AF909F908F9004
:1020E0000895E95CE1CF0C94B41A0F920FB68F9368
:1020F0009F93EF93FF938091D0018D5F8D3708F010
:102100008D578093D001E1EDF1E080818E4F808387
:1021100091819F4F918382818F4F828383818F4FE3
:102120008383E5EDF1E080818F5F808381818F4F34
:10213000818382818F4F828383818F4F83838FB18D
:102140008F6066991C9B88278F3681F48091CF0120
:10215000981B963068F0E0E0F8E087E780838183A1
:1021600088E180936000F0936000FFCF9093CF01EF
:10217000FF91EF919F918F910FBE0F9018951F9235
:102180000F920FB60F9211248F939F938091E100CD
:102190009091E100937F9093E10083FF0FC0109234
:1021A000E90091E09093EB001092EC0092E39093A1
:1021B000ED001092E60198E09093F00082FF22C0BB
:1021C00093E09093E9009091F200992319F09AE33B
:1021D0009093E8009091C101992341F09091C10141
:1021E00091509093C101911101C05D9A9091E501C8
:1021F000992341F09091E50191509093E50191115F
:1022000001C0289A84FF18C08091E2008E7E816010
:102210008093E2008091E1008F7E8093E1008091C5
:10222000C2018E7E80618093C2019F918F910F9039
:102230000FBE0F901F90189580FFF7CF8091E2009E
:102240008E7E80618093E2008091E1008E7E80939B
:10225000E1008091C2018E7E8160E5CF1F920F92D6
:102260000FB60F921124CF92DF92EF92FF920F934D
:102270001F932F933F934F935F936F937F938F930E
:102280009F93AF93BF93EF93FF93CF93DF93CDB71C
:10229000DEB76C97DEBFCDBF1092E9008091E800F9
:1022A00083FF25C068E0CE0145960E94220C82EF94
:1022B0008093E8008D8987FF39C09091E80090FFF6
:1022C000FCCF982F907609F034C19E894F89588DA4
:1022D0002F89F88C911131C0803861F58091C3014C
:1022E0008093F1001092F1008EEF8093E8006C96DD
:1022F0000FB6F894DEBF0FBECDBFDF91CF91FF9137
:10230000EF91BF91AF919F918F917F916F915F916D
:102310004F913F912F911F910F91FF90EF90DF9080
:10232000CF900F900FBE0F901F9018959EEF909337
:10233000E800C7CF1092F100D5CF913059F4811148
:10234000D3CF4130510581F68091C3018D7F8093B9
:10235000C301CACF933049F48111C6CF4130510532
:1023600019F68091C3018260F2CF953041F48091DB
:10237000E80080FFFCCF20682093E300B5CF9630C3
:1023800009F0A9C00B8D1C8D22E01092E90010927B
:10239000BF011092BE01F2122EC01092BD01109228
:1023A000BC010E94F10B1F8299E09983FA8291E0AF
:1023B0009E8390EA98879AEF99872091BE01309189
:1023C000BF01275F3F4F3C832B838D831092E90031
:1023D0001092BF011092BE011093BD010093BC0189
:1023E00049E050E0BE016F5F7F4F80E00E94CB0B61
:1023F0000E94F10B79CF1093BD010093BC010E94A4
:10240000710BDC0112960D911C910115110509F457
:1024100051C1D801ED91FC910480F581E02DBE0100
:102420006B5E7F4FC8010995009709F03EC1F80126
:1024300000851185EACFF3E0FF120EC08F89882353
:1024400009F440C0823061F440E867E089E993E133
:102450000E946013811148CF81E28093EB0047CF47
:10246000813029F440E86BE08DE893E1F1CF8330CF
:1024700099F70E94710BDC011296ED90FC908E0191
:102480000F5F1F4F6801E114F10479F0D701ED915E
:10249000FC910680F781E02DB801C7010995080F6E
:1024A000111DF701E084F184EECFD8011C92F601F2
:1024B00001900020E9F73197BF016C197D0940E0D8
:1024C000C601C6CF67E773E1FB01449150E080E8A5
:1024D0000E94CB0B09CF973009F4BECF983021F47E
:1024E00081E08093F10000CF993009F0FDCE837038
:1024F00009F0B2CFE4E1F1E081E031E096E321912F
:10250000222371F08093E9003093EB00DF011197F3
:102510002C912093EC009093ED008F5F873079F73A
:102520008EE78093EA001092EA008F898093E6019B
:10253000DBCE8B8D9C8D1092E9001092BF01109222
:10254000BE019093BD018093BC01898D811192C021
:102550008E899D89913A49F4813209F07DCF47E017
:1025600050E067E071E080E0B3CF913209F074CFC2
:10257000833269F48F89988DB0E0A0E080930301E5
:1025800090930401A0930501B0930601ADCE803273
:1025900069F48091E80082FFFCCF67E087E091E07A
:1025A0000E94220C8BEF8093E8009ECE823209F0CD
:1025B0009BCE8F8980930E01EEEFFFE7859194917A
:1025C0008B3F9C4D51F1E0E0F8E080910701909144
:1025D0000801A0910901B0910A01803B9440A10536
:1025E000B105F1F480910E0180FD1AC0EE3F8AE042
:1025F000F80789F587E797E79183808380916000EA
:102600008093C00188E19BE00FB6F894A895809371
:1026100060000FBE9093600067CEEEEFFAE0D5CF7A
:10262000808191818737974709F05ECEA895809188
:1026300060008861809360008091C0018093600099
:10264000EE3F2AE0F20789F08091FE0A9091FF0A9E
:102650009183808349CE808191818737980751F299
:102660009093FF0A8093FE0AC5CF1092FF0A109242
:10267000FE0A3ACE0E94710BDC0112960D911C915C
:102680000115110509F4E8CED801ED91FC910190F6
:10269000F081E02DBE016B5E7F4FC801099581116D
:1026A00023CEF80100851185EBCF181619060CF41E
:1026B0001BCED2CEF1E0FF12BECE6BE773E104CFAA
:1026C000EF92FF920F931F93CF93DF93F82E192F62
:1026D000E62E042F81E0860F880F0E949D0B83E079
:1026E0000E949D0BCF2DD12FEC0EFD2EF11CCE158F
:1026F000DF05B9F007FF13C0FE0184910E949D0B16
:10270000182F80E00E949D0B812321968111EFCF2D
:10271000DF91CF911F910F91FF90EF9008958881E5
:10272000EDCF81E0F5CFE7EEF5E01382128288EE7F
:1027300093E0A0E0B0E084839583A683B7838EE125
:1027400091E0918380838FEF9FEF95878487E7E304
:10275000F6E01382128280E391E091838083E2E4C9
:10276000F6E012821382158214828CE0868388E060
:10277000878386E0808794E091871286138614868B
:10278000158611821082E0E5F6E090E6DF011D92E9
:102790009A95E9F7EBE3F6E028EC34E13183208306
:1027A00028EA34E13383228390E19483858381E0B6
:1027B00086830895CDB7DEB72697DEBFCDBF789468
:1027C00083E084BD83E085BD81E080936E00E1E815
:1027D000F0E083E08083E0E881E08083E1E983E06A
:1027E0008083E0E981E08083E1EC87E08083E3ECB3
:1027F00081E08083E0EC82E08083E2EC81E0808312
:10280000EAE787E08083806880831092E601109277
:10281000C3011092C2018091D70081608093D700DC
:1028200080EA8093D80089B5806189BD89B58260CE
:1028300089BD09B400FEFDCF0E94440B8091D800F1
:102840008F7C80618093D8008091E000807F8093AE
:10285000E0008091E1008E7E8093E1008DE0809326
:10286000E200559A209A81EC80937C0085B1806FBC
:1028700085B984B1877E84B984B1876E84B95E9A44
:102880005F988AB1806D8AB9769A6E9881B3806FAD
:1028900081BB899880B38D7080BB80E58CBD81E061
:1028A0008DBD85E090E00E947B0D5F9A85E090E011
:1028B0000E947B0D5E985C98E1E5F4E181E694E18D
:1028C00024912EBD00000DB407FEFDCF31968E176A
:1028D0009F07B1F75C9A81E880936400809165005E
:1028E0008160809365000E94090E80E80E94FE0DC1
:1028F000882381F05C9885EA8EBD00000DB407FE48
:10290000FDCF5C9A2E982F982D9881E083BF8895F3
:1029100013BEFCCF84E00E94FE0D882309F448C05A
:102920002D9884E80E94FE0D8823E1F00E94790D25
:1029300088EC90E00E947B0D2F9882E090E00E944E
:10294000B41A8F3F29F06FEF82E090E00E94BC1A2A
:1029500084EF91E00E947B0D2F9A84E80E94FE0D87
:102960008111FBCF84E10E94FE0D8823E1F00E94DB
:10297000790D88EC90E00E947B0D2E9882E090E02B
:102980000E94B41A882329F060E082E090E00E945F
:10299000BC1A84EF91E00E947B0D2E9A84E10E9484
:1029A000FE0D8111FBCF88EC90E00E947B0DB2CF31
:1029B0000E94790D82E090E00E947310882309F450
:1029C00060C03E9A3F9A81E090E00E947310482FC9
:1029D0004470742E81FF11C041112E9801EF1FEF3A
:1029E000E8E0EE2EF12C80E40E94FE0D882309F42D
:1029F0004BC02E9A2F9A0E94790D82E390E00E949C
:102A00007B0D0E94800D8111F8CF109290008AE01A
:102A1000809391008FEF9FEF9093F4058093F305DF
:102A200087EE91E09093CC018093CB011092CA0184
:102A30001092C9011092C8011092430610924206EA
:102A4000D12C60914C0670914D0680914E0690916C
:102A50004F0620914206309143066F5F7F4F8F4FA4
:102A60009F4F28303105C8F7F901E75CFA4E0C9406
:102A70002D1B85168516C7165217031675192D15A9
:102A8000CC193E983F989FCF772029F0043011054C
:102A900011F42E9A2F9881E00E94FA0A980117FFEC
:102AA00004C022273327201B310B27703327C8018E
:102AB00017FD079673E0959587957A95E1F717FFCF
:102AC00005C00197D701A21BB30B9D01AC01569520
:102AD000542F44275795479549515E4FB0E0A0E0E9
:102AE0002701421A530A8E3FEFEF9E0709F43BC0BD
:102AF0005A01F4E9AF0EB11C6A0170E060E0FD011B
:102B0000EF55FC4E4F018F3F980779F0F401E60F27
:102B1000F71FE491F0E01F01022E01C0220C0A947D
:102B2000EAF7F60164882628248A2115310581F008
:102B3000F401E60FF71FE491F0E01F01042C02C03E
:102B4000359427940A94E2F7F501608026282082C4
:102B50006F5F7F4FFFEFAF1ABF0AEFEFCE1ADE0AAB
:102B60006835710581F60196A85ABF4F40585F4FEE
:102B7000A03BB10509F0B7CF0E94090E8FE090E0AD
:102B80000E947B0D0F5F1F4F0931110509F02BCFFC
:102B9000772011F02F9A2D9880E991E00E947B0D0B
:102BA0000E94790D81E090E00E94731080FF25CF94
:102BB0008AE090E00E9473109FEF980F9E3F08F00C
:102BC0001CCF22E330E03093C7012093C60128E3F5
:102BD00030E03093C5012093C4010BE010E0682F72
:102BE00087E396E00E94880DC8010E9473100F5F72
:102BF0001F4F0131110599F70E94090E88EE93E0ED
:102C00000E947B0DFACE60934C0670934D06809324
:102C10004E0690934F0605E010E080914C0690918F
:102C20004D06A0914E06B0914F062091420630917C
:102C300043062D7F2530310509F403CF0196A11DF0
:102C4000B11D80934C0690934D06A0934E06B09311
:102C50004F06F0904A06E0904B0680E20E94FE0D7F
:102C6000C82E882321F0FF2009F46DC2FA9480E475
:102C70000E94FE0D4F2D50E0882349F02091480618
:102C80002150330B4217530714F4F394C82E80E8F5
:102C90000E94FE0D882321F0EE2011F0EA94C82E48
:102CA00080E10E94FE0D4E2D50E0882349F02091D6
:102CB00049062150330B4217530714F4E394C82EEE
:102CC0000E943D0E882309F440C284E00E94FE0D5C
:102CD000B82EB19464E670E080E090E00E94850B2D
:102CE000EFEFBE12B3940E943D0E8111F3CF6E2D13
:102CF0008F2D0E94BF0AC82EF3E0FB1508F053C2C7
:102D000086FD4AC2CC24C39425C260934C067093BE
:102D10004D0680934E0690934F0611E01D0D8D2DAC
:102D2000DD0C990B892F881F8827881F8093420606
:102D30001092430680E00E946C0E0E943D0E882394
:102D4000F1F082E090E090934306809342060E9467
:102D50003D0E8823A1F080914C0690914D06A091E4
:102D60004E06B0914F060196A11DB11D80934C06F1
:102D700090934D06A0934E06B0934F06E8CF62E3C2
:102D800070E080E090E00E94850BD12E5ACE6093D7
:102D90004C0670934D0680934E0690934F0611E0BB
:102DA00080E80E94FE0D082F8823D1F18091410612
:102DB000882319F081508093410680E10E94FE0D26
:102DC000882381F180914106833018F48F5F8093CE
:102DD000410680E00E946C0E80E20E94FE0D81118F
:102DE000FBCF80E40E94FE0D8111F6CF80E80E94A7
:102DF000FE0D8111F1CF80E10E94FE0D8111ECCF1B
:102E00000E943D0E8111E8CF84E00E94FE0D8111E9
:102E1000E3CF64E670E080E090E00E94850B04C0A0
:102E2000012FCBCF0111D5CF80914C0690914D064B
:102E3000A0914E06B0914F060196A11DB11D809341
:102E40004C0690934D06A0934E06B0934F0662E356
:102E500070E080E090E00E94850B0E943D0E182FEC
:102E6000882309F49DCF0E943D0E8823A1F0809114
:102E70004C0690914D06A0914E06B0914F060196DA
:102E8000A11DB11D80934C0690934D06A0934E0654
:102E9000B0934F06E8CF83E090E090934306809391
:102EA0004206CECD60934C0670934D0680934E063D
:102EB00090934F06E0914106F0E0EC55FB4E1491E3
:102EC000109245061092470610924606E0E5F6E09D
:102ED00020E6DF011D922A95E9F71093440661155B
:102EE00071058105910511F00E94A21A00E11150AF
:102EF00008F047C0C0904906AC2CB12C00914806A0
:102F0000802E912C10E0812F012E000C990B8A1538
:102F10009B050CF055C0100330011124512CB2E078
:102F2000B10FBE83E52C052C000CFF08E814F90452
:102F30000CF056C0612F852D0E94BF0A8031F9F038
:102F400033243A94310E412C22242A94632D852D6A
:102F5000820D0E94BF0A84FD43942394E2E02E1266
:102F6000F5CF3394FE81F311EFCF442041F0F70108
:102F7000E60DF71DEE5BF94F8685482A4686539489
:102F8000D1CFE090480620914906E29E70011124BD
:102F900060E0E114F10441F00E94531A9701FF0C24
:102FA000440B550B0E94CA1AA62FB0E0AE5BB94F76
:102FB000FD013E961E968C918111E3CF008397CF41
:102FC000C09E9001112480E0E82FF0E0E217F307A3
:102FD0004CF4EE5BF94F9685906496878F5FF4CF43
:102FE0001F5F91CF069500934A06C694C0924B0688
:102FF00085E994E10E94F30C80E20E94E10A682FC7
:1030000070E090E080E04AE00E942F1084E894E1B4
:103010000E94F30C80E40E94E10A682F70E090E0C7
:1030200080E04AE00E942F1083E794E10E94F30CB5
:103030006091460670E090E080E04AE00E942F1028
:1030400089E694E10E94F30C80904C0690904D0626
:10305000A0904E06B0904F064AE0C501B401B7FEFD
:103060000DC06DE287EE95E00E94DD0C66277727A4
:10307000CB01681979098A099B094AE00E942F103F
:103080000E94680E712C80914906781608F052C093
:103090001092CD0100914806A02EB12C709E8001A7
:1030A0001124005B194FF12CE12C450141E0841AF9
:1030B0009108EA14FB04D0F5D801CD908D0145E0CC
:1030C00050E064E674E1CE0101960E94AB1A8C2DAB
:1030D00090E024E0959587952A95E1F78A3010F5E0
:1030E000805D8B838C2D8F708A30F0F4805D8C83B3
:1030F000CE0101960E945B0EE814F90420F481E6EB
:1031000094E10E94F30C8091CD018F5F8093CD01FB
:10311000803120F01092CD010E94680EBFEFEB1AB3
:10312000FB0AC7CF895CDDCF895CE1CF0E94680EC6
:103130007394A9CF0E94680E84E090E090934306B8
:10314000809342067ECCC12C92CD84E00E94FE0D7D
:103150008111BBCD8091CE018F5F8093CE01803AEB
:1031600010F01092CE01F0924A06E0924B06409188
:10317000480620914906429F9001112480E0E82FE3
:10318000F0E0E217F3070CF096C0EE5BF94F96857E
:103190009F7796878F5FF3CF40E248276E2D8F2D64
:1031A0000E949F0AAFCD85FDADCD86FF70C0809196
:1031B00046069091470601969093470680934606EF
:1031C0004C2D4F796E2D8F2D0E949F0AC4FC6EC02E
:1031D000612C812C20914906882D082C000C990B1C
:1031E0002817190609F00CF450C0712C92E0592EE2
:1031F000580C20914806872D072C000C990B281796
:10320000190609F00CF43FC0682D872D0E94BF0AF3
:103210008F77B9F5CC24CA94C80C82E0482E470CAD
:1032200099249A94970CAC2C0C2C000CBB0897FC9E
:1032300022C020914806892D092C000C990B2817D3
:103240001906C9F0C4F0C7FC16C0809149068A155A
:103250001B0489F084F06C2D892D0E94BF0A86FF23
:103260000AC084FD08C0482F4F716C2D892D0E9423
:103270009F0A6624639493944910D9CFC3945C1039
:10328000CFCF7394B6CF8394A5CF6110A1CF80E444
:103290000E94E10A90914406981708F433CD47E064
:1032A00050E050934306409342062CCD10934306C2
:1032B0000093420627CDEF2DF0E04E9DE00DF11D6D
:1032C0001124EE5BF94F86858068868780E00E9436
:1032D0006C0ECC2009F4A1CC1092CE0164E670E013
:1032E00080E090E00E94850B98CC60934C06709330
:1032F0004D0680934E0690934F0610E081E0111129
:1033000080E00E946C0E64E670E080E090E00E9435
:10331000850B1F5F1A3091F710E08091490618174E
:10332000A8F400E080914806081770F4612F802F00
:103330000E94BF0A84FF06C0482F4F7B612F802F59
:103340000E949F0A0F5FEECF1F5FE7CF86E090E0FD
:1033500090934306809342060E943D0E81110DC05A
:1033600081E00E946C0E8091CE018F5F8093CE0130
:10337000803A90F31092CE01EFCF0E943D0E811162
:10338000FCCF64E670E080E090E00E94850B109234
:1033900043061092420655CB60934C0670934D063F
:1033A00080934E0690934F0680E00E946C0E0E9420
:1033B0003D0E811114C080914C0690914D06A09154
:1033C0004E06B0914F060196A11DB11D80934C068B
:1033D00090934D06A0934E06B0934F06E8CF0E94FF
:1033E0003D0E8823A1F280914C0690914D06A0914C
:1033F0004E06B0914F060196A11DB11D80934C065B
:1034000090934D06A0934E06B0934F06E8CF8F924F
:103410009F92AF92BF92CF92DF92EF92FF92CF93A3
:10342000DF93EC01688179818A819B816115710547
:103430008105910521F464E279ED8BE597E02DE1BA
:1034400033EF41E050E00E94CA1A49015A019B0142
:10345000AC01A7EAB1E40E94E91A6B017C01ACEE71
:10346000B4EFA50194010E94F71AC60ED71EE81EFC
:10347000F91EF7FE06C081E0C81AD108E10880E80D
:10348000F80AC882D982EA82FB82C701B6019F7717
:10349000DF91CF91FF90EF90DF90CF90BF90AF90F2
:1034A0009F908F9008958F929F92AF92BF92CF92EC
:1034B000DF92EF92FF9260910F0170911001809165
:1034C000110190911201611571058105910521F499
:1034D00064E279ED8BE597E02DE133EF41E050E0D8
:1034E0000E94CA1A49015A019B01AC01A7EAB1E442
:1034F0000E94E91A6B017C01ACEEB4EFA5019401C6
:103500000E94F71AC60ED71EE81EF91EF7FE06C067
:1035100081E0C81AD108E10880E8F80AC0920F01DA
:10352000D0921001E0921101F0921201C701B60190
:103530009F77FF90EF90DF90CF90BF90AF909F90DC
:103540008F90089560930F01709310018093110183
:10355000909312010895FB01DC0102C005900D92C9
:1035600041505040D8F70895F999FECF92BD81BDE2
:10357000F89A992780B50895262FF999FECF1FBA9A
:1035800092BD81BD20BD0FB6F894FA9AF99A0FBE8C
:1035900001960895052E97FB1EF400940E94E11AEF
:1035A00057FD07D00E94FC1A07FC03D04EF40C9480
:1035B000E11A50954095309521953F4F4F4F5F4F01
:1035C000089590958095709561957F4F8F4F9F4F8F
:1035D00008950E941E1BA59F900DB49F900DA49F5F
:1035E000800D911D11240895B7FF0C94E91A0E94D3
:1035F000E91A821B930B0895A1E21A2EAA1BBB1B8A
:10360000FD010DC0AA1FBB1FEE1FFF1FA217B307AE
:10361000E407F50720F0A21BB30BE40BF50B661FC4
:10362000771F881F991F1A9469F760957095809588
:1036300090959B01AC01BD01CF010895A29FB001FF
:10364000B39FC001A39F700D811D1124911DB29FD6
:10365000700D811D1124911D0895EE0FFF1F05901F
:0A366000F491E02D0994F894FFCFD7
:10366A000A0100FFFFFFFF00E10000000000000167
:10367A0000000000C1808100000000000000DD0C95
:10368A005C0C190D0E0D5F0D1D0D3B0D00000000A9
:0C369A00880D2F0C410E400E0D0A0000A0
:00000001FF
