:100000000C94620A0C948A0A0C948A0A0C948A0A48
:100010000C948A0A0C948A0A0C948A0A0C948A0A10
:100020000C948A0A0C948A0A0C9470100C94DF10B9
:100030000C948A0A0C948A0A0C948A0A0C948A0AF0
:100040000C948A0A0C948A0A0C948A0A0C948A0AE0
:100050000C948A0A0C948A0A0C948A0A0C9426102E
:100060000C948A0A0C948A0A0C948A0A0C948A0AC0
:100070000C948A0A0C948A0A0C948A0A0C948A0AB0
:100080000C948A0A0C948A0A0C948A0A0C948A0AA0
:100090000C948A0A0C948A0A0C948A0A0C948A0A90
:1000A0000C948A0A0C948A0A0C948A0A00000400B0
:1000B00040000800007CFE8282FE7C0000888CFEEE
:1000C000FE8080000084C6E2B29E8C000044C6829E
:1000D00092FE6C000030382CA6FEFE80005EDE92A0
:1000E00092F26200007CFE9292F66400000202C26C
:1000F000F23E0E00006CFE9292FE6C00004CDE920E
:1001000092FE7C00FF8F070305058EFF00552A55E0
:100110002A552A55FF7F0171F1FBFFFF00006C8219
:1001200082826C00000000000000EE00000060927F
:1001300092920C000000009292926C0000000E104F
:100140001010EE0000000C929292600000006C9281
:1001500092926000000000020202EC0000006C922B
:1001600092926C0000000C9292926C002A2A2A2033
:1001700052656E646572496D6167652829203A2071
:1001800064656661756C74206272616E6368206874
:100190006974202D2064696420796F7520666F7200
:1001A00067657420736F6D657468696E673F202A98
:1001B0002A2A0000000000407F033C603C037F408F
:1001C000007D007C04047C0038545454580048548A
:1001D0007424000000000000000000000000000087
:1001E000000000000000000000000000000000000F
:1001F00000000000000000000000000000000000FF
:10020000000080000000000000000000000000006E
:100210000000000000000000000101017F0101005A
:100220007D007F0038545454580048547424000012
:1002300000000000000000000000000000000000BE
:1002400000000000000000000000000000000000AE
:10025000000000000000000000000000000000009E
:10026000000000000000000000000000000000008E
:100270000000000000000000107CC682828200FFA7
:1002800000FA007088888800FF3048800090A8E855
:100290004800000000000000000000000000000016
:1002A000000000000000000000000000000000004E
:1002B000000000BFBF828F02804043200160A40184
:1002C000C08B01E08A01C0840120AA8E023F6143F5
:1002D00040012082013E4341013F82117F0603011C
:1002E0007F60103E424121FE06007F02014207036B
:1002F000187E434241023F404201017F4201020019
:100300003F4340017F83057F00187E434241023F07
:10031000404201017F420103007E7F82013E434152
:10032000013F820C7F0603017F60404E4A493B0338
:1003300095A44304020201BF98BFBF82870801064B
:100340001CB0E03C07018201F0430801F88201F88B
:100350008301F88608705048D818C0F01842080E7B
:10036000F8000878C000E03800F0D0486830820219
:10037000F01842080218FF85420801FE42080300F7
:10038000FF30420801F08205F0D04868308602FF55
:1003900001420207040CF800C0F01842080BF800F4
:1003A0001870C000C0780800FF8889020203860127
:1003B000014302010182010143020103854402015C
:1003C000018201034302020102820201038301014F
:1003D0004402030100014302420387010383010336
:1003E00083010382010144020101850101440201EC
:1003F00001830103430207010200203D070183013D
:100400000288BFBF829842F04410010042A0010060
:10041000458083448042F0864680010042F001001E
:1004200042F08642F003E0C080820380C0E042F0E8
:100430008242A00100458083448083448094984296
:100440003F430182423F0100423F82423F03001F7F
:100450003F4320423F85021F3F4320423F0100426D
:100460003F0100423F86423F03000103421F030356
:100470000100423F82423F0100423F82423F03006F
:100480001F3F42240537170013374224023D1993BA
:1004900094028040472145A147210241817F0145C7
:1004A00001919401FF8603FCFF2343210323FFFCFA
:1004B0008601FF85C284C2010042F8420805F8F0B7
:1004C00000F0F8420805181000F0F8420803F8F0B0
:1004D0000042F88242F80300F0F8424803787000C6
:1004E00042F8053018081810834301C2430142F452
:1004F0000100C20300F0F8424802787086940103BC
:1005000042044408420B4508420B440842040103DC
:1005100085020103440242030100420382420303B5
:10052000000103420205030100010342020203012C
:10053000820101420301018202010342020303011D
:100540000042038B42038342030100420303000184
:10055000034202020301869402FC02450142FD456A
:100560008D02F97145010202FC850A387C44C4847D
:100570008C0800C0E0422004E0C0002042FC0120C2
:100580008642FC434402040042FC0300C0E04320D6
:1005900042E00300C0E0432042E09E94011F42205D
:1005A0004440425F4558024F4744404220011F8566
:1005B00002040C4308050F0700070F4209020D054E
:1005C0008202070F420885420F85420F0300070F82
:1005D0004308420F0300276F4348027F3F9EBFBF7F
:1005E000829D03C0F8FC42CC424C010C42C04260E8
:1005F00004E0C000C042E04260080060E08000808B
:10060000E0608608C0F0381C0C80FC7C436C02CC97
:10061000048301C042F006F8FCFAF2F4C084030C33
:10062000FCF8A19D420F440C0300070F430C040F7C
:1006300004000C420D090F060040733F0F030187B1
:10064000033F7F60820104440C02070384010142DE
:1006500007430F4207010182054060301F0FA19E32
:1006600002C0F842FC0300C07042FC040080C0607D
:1006700043E0030080C0436009E0FC0C00E06C0034
:10068000C0E08204C0E000C042E0016042E00160DE
:1006900042E0870AC0F0381C0C0018F8FC0C8303F9
:1006A000C0F018430C02FC708401C042F006F8FC54
:1006B000FAF2F4C083030C3CF8869D080F07000390
:1006C0000F070300420F0306070F420D050C04003D
:1006D000070E420C040E0F0100420F82420F420C23
:1006E000060F03000F0700420F82420F87033F7F70
:1006F000608202080C420F8402070F430C020703BA
:100700008501014207430F42070701004060301E88
:100710000F869D0380F8FC45C002FC1C42C042606D
:1007200005E0C000C0E0426042E00280C0436003D8
:10073000E0FC0C860AC0F0381C0C0018F8FC0C8396
:1007400003C0FC7C436C02EC048301C042F006F859
:10075000FCFAF2F4C084040C7CF840959D020F076B
:1007600085420F02070F430C050F04000F0384029C
:10077000070F430C010F88033F7F608204080C0FB2
:100780000D840104440C0207038401014207430F56
:100790004207010182054060301E0F969F0318D862
:1007A000F84318018045C002008044C0438043C024
:1007B0000380008045C00100428043C00180861054
:1007C000C0F0381C0C0010988CCC6C7800C0F0186D
:1007D000430C02F8708301C042F006F8FCFAF2F410
:1007E000C084030C3CF88C9E021018421F4218056E
:1007F000001F070100421F020019421B051E0C0EBC
:100800001F194218101F09001F0F01001F0F000FB2
:100810001F1A1B190986033F7F6082020E0F420DCB
:10082000420C8202070F430C0207038401014207B6
:10083000430F4207010182054060301E0F8CC40C3B
:10084000FEFCF8F0E1C3870F1F3F7FFE42FC01F87A
:1008500042F142E342C7428F421F053F7EFCF8F35C
:10086000C405FCF0C0031FC30CFEFCF8F0E1E3C3B9
:10087000870F1F3F7FC203FEFCF842F003F8FCFE27
:10088000C2027F3F421F028FC742E302F1F842FCDF
:1008900001FEC4021F038202C0FCC443FC44FE42AA
:1008A0007E453E013F421F429F43CF43E706F7F399
:1008B000733B399D028187428F439F01BFC40BFE6A
:1008C000F8F0E0C183070F1F3F7FC542FE01FC42E5
:1008D000F842F101E342C7088F1F3F3E6000073F27
:1008E000C907FEFCF8F0E1C307420F068783C3E1A6
:1008F000F1F842FC01FECB023F0783031C0E8F423E
:100900008742C342E301E142F101F043F843FC4373
:10091000FE017F423F421F088FCFC7E7E3F1F9FC9A
:1009200042FE017F413F493F4A1F0A9E9C989080AA
:1009300081878F9FBFCB42FE42FC42F802F1F7CE87
:1009400001FED501FC43FECA01BF421F420F020750
:100950006742E342F142F801FC42FEC242DF07CFA8
:100960008F87830301184238013C431E423E427E7A
:10097000017FD9043F0F078744C703070F1FC30137
:100980003F421F018F46C7420F011FC2013F421F56
:10099000018F46C7420F011FC3023F0F4207011FCD
:1009A000C2027F1F4207010FCC43FE42FC42F80304
:1009B000F9F1F342E301E742C7438F020F1F423FC1
:1009C000427F42FE427F42FE42FC43F802F0F14287
:1009D000E102E3C343C7428F019F421F423F427F70
:1009E000C5013F820120443109100080C6FFC38049
:1009F000001C453F0A1F0F83C0F0FCC380001C454C
:100A00003F0C1F0F83C0F0FC1F0701E0FCC08204F5
:100A100007C1E0FC83017FD04E7F013F433E433C52
:100A20000278F042E004C0C1C3034307028FEFC65F
:100A3000087F1F0F0380E0F8FCC548FEC846FEC9CA
:100A400046FEC642FEC442FEC542FEC803F9F8F0A7
:100A500042E004CC9C3C7C47FC03FEBE9E421E420E
:100A60005E42DE459F0AFCFE3E1F0F03C1F0FCFE06
:100A7000C5077F0F0781E0F0FCD0027F3FD1427FA6
:100A8000D3067F3F1F0F8F1F423F437FD208FEFCDC
:100A9000FDFBF3E7EFCF429F033F7F7E42FE04F86A
:100AA000F9F3E342C70581C0F0F8FCC5087F1F07D2
:100AB00003C0F0FCFEC3437F423F429F06CFEFE7F7
:100AC0006773F342F9013C8201FCC90E7F3F1F0F9F
:100AD00087C3E1F0F878F8F1C387420F031F3F7F27
:100AE000C6077F1F87E1F0FCFEC2037F3F1E423C2A
:100AF00042380170427101F342E342E742CF01DF25
:100B0000429F423F427FCB01FE42FC01F942F30289
:100B1000E7CF429F900380C0204310013082448081
:100B2000820280004380844280830280004380826E
:100B300044800100428001E0428002008083018005
:100B40008301F08344800100428001E04280820101
:100B5000908344808202800043808443800200F0BE
:100B60009190021F304320011082011F4320011F7A
:100B700082113F0301003F30081F212010FF0300B6
:100B80003F01004203030C3F214220021F2082014B
:100B90003F83011F4320013F83053F000C3F21425B
:100BA00020021F2082013F83423F82011F43200118
:100BB0001F820E3F0301003F30202725241D010026
:100BC0002F9190434001C044400200C08C42020279
:100BD0008201B601C08301C09B93021FFE8402FF05
:100BE0000C420205FC0030FC864282027E804202FA
:100BF00001FF4202850C7EE0380EF8E03E02003034
:100C0000FC864282017E4280059C94927606850392
:100C1000FE0402420E0A007CB4929A8C4030FC869C
:100C20004282027E808201FF8309FF00061C70C0A1
:100C3000701E0293BFA803080F01969306C0705C54
:100C4000467FE0820E033EE080701E3FE000E03C05
:100C50000700FF4511010182020E1242110231E12B
:100C60008203F80E0243011081FE1800C07E0FF8C7
:100C700000C03E07FC8000FF451101018501FF8691
:100C800001FF8601FF97920203018402030283425F
:100C900003834203840101450282010144020203ED
:100CA0000183010144020101830103820301030165
:100CB00082040103000145028601028601028601C9
:100CC0000297BFBF8287016050F0027060820160AE
:100CD00042F00170BFA18DC48902C0F842FC011826
:100CE0008301F843FC0478383C1C42FC04F82000E3
:100CF0003842FC03F8E080820780E0F0F87C3C0892
:100D00008301C072E001C08B8C01FCC2013F8901EC
:100D100070C2027F01820170C2037F07018301FE5E
:100D2000C2017F8402039FC206FE7E1F0F0301865D
:100D300001016E03C58B8B01E043F001E09F06705B
:100D40007C7F3F0F03BBC58B8BC5A042808843804F
:100D5000884380A8C58B8BC59C0380F0FEC48303A9
:100D600080E0FCC48605C0E3E7C7038201C043E01E
:100D700042C044E001C084018042C046E002C0801D
:100D8000834AE042E101618C8B013F447F517C0149
:100D9000388707C0F0FEFF1F0700C307F0F8FE3FCB
:100DA0000F0300C4830280FEC2010F820280F8C2DA
:100DB000033F0F03420101F0C30301F8FEC207BB6A
:100DC000391D1C1E8E8F42870101830B80C0E0F00D
:100DD000F87C3E0F0703018EA80106420F0107852C
:100DE00043070103850103430F8301034207010306
:100DF00083010342070103854307010382020103C4
:100E00004707420301018202060F4A0701028E00D2
:100E1000000000003E5B4F5B3E3E6B4F6B3E1C3E56
:100E20007C3E1C183C7E3C181C577D571C1C5E7F6A
:100E30005E1C00183C1800FFE7C3E7FF00182418E9
:100E400000FFE7DBE7FF30483A060E26297929261E
:100E5000407F050507407F05253F5A3CE73C5A7F08
:100E60003E1C1C08081C1C3E7F14227F22145F5F5E
:100E7000005F5F06097F017F006689956A60606098
:100E8000606094A2FFA29408047E040810207E20D3
:100E90001008082A1C08081C2A08081E1010101028
:100EA0000C1E0C1E0C30383E3830060E3E0E06006E
:100EB0000000000000005F00000007000700147F32
:100EC000147F14242A7F2A12231308646236495699
:100ED00020500008070300001C2241000041221C92
:100EE000002A1C7F1C2A08083E0808008070300079
:100EF0000808080808000060600020100804023E8E
:100F00005149453E00427F400072494949462141CE
:100F1000494D331814127F1027454545393C4A493D
:100F2000493141211109073649494936464949297C
:100F30001E0000140000004034000000081422418C
:100F40001414141414004122140802015909063E15
:100F5000415D594E7C1211127C7F494949363E4110
:100F60004141227F4141413E7F494949417F090931
:100F700009013E414151737F0808087F00417F41CC
:100F8000002040413F017F081422417F4040404003
:100F90007F021C027F7F0408107F3E4141413E7F5B
:100FA000090909063E4151215E7F09192946264952
:100FB00049493203017F01033F4040403F1F204029
:100FC000201F3F4038403F63140814630304780433
:100FD000036159494D43007F4141410204081020FB
:100FE000004141417F040201020440404040400072
:100FF0000307080020545478407F2844443838447C
:10100000444428384444287F385454541800087EF7
:10101000090218A4A49C787F0804047800447D4049
:10102000002040403D007F1028440000417F4000E8
:101030007C047804787C080404783844444438FC00
:101040001824241818242418FC7C08040408485484
:1010500054542404043F44243C4040207C1C204041
:10106000201C3C4030403C44281028444C90909038
:101070007C4464544C440008364100000077000072
:10108000004136080002010204023C2623263C1ED1
:10109000A1A161123A4040207A3854545559215543
:1010A0005579412154547841215554784020545564
:1010B00079400C1E527212395555555939545454B1
:1010C0005939555454580000457C410002457D4231
:1010D0000001457C40F0292429F0F0282528F07CE7
:1010E000545545002054547C547C0A097F493249A8
:1010F0004949323248484832324A4848303A4141F8
:10110000217A3A42402078009DA0A07D3944444491
:10111000393D4040403D3C24FF2424487E494366FD
:101120002B2FFC2F2BFF0929F620C0887E090320D6
:10113000545479410000447D413048484A32384097
:1011400040227A007A0A0A727D0D19317D262929FA
:101150002F28262929292630484D402038080808FC
:101160000808080808382F10C8ACBA2F102834FA1D
:1011700000007B000008142A142222142A14089567
:1011800000220095AA005500AAAA55AA55AA000057
:1011900000FF00101010FF00141414FF001010FFC7
:1011A00000FF1010F010F0141414FC001414F700D9
:1011B000FF0000FF00FF1414F404FC141417101FA8
:1011C00010101F101F1414141F00101010F0000036
:1011D00000001F101010101F10101010F010000051
:1011E00000FF101010101010101010FF1000000061
:1011F000FF140000FF00FF00001F10170000FC0498
:10120000F414141710171414F404F40000FF00F77A
:1012100014141414141414F700F7141414171410DD
:10122000101F101F141414F4141010F010F000000C
:101230001F101F0000001F14000000FC140000F02D
:1012400010F01010FF10FF141414FF141010101FD2
:1012500000000000F010FFFFFFFFFFF0F0F0F0F0E3
:10126000FFFFFF0000000000FFFF0F0F0F0F0F3800
:10127000444438447C2A2A3E147E02020606027E3A
:10128000027E0263554941633844443C04407E2059
:101290001E2006027E020299A5E7A5991C2A492A6A
:1012A0001C4C7201724C304A4D4D303048784830F9
:1012B000BC625A463D3E494949007E0101017E2AF1
:1012C0002A2A2A2A44445F444440514A4440404424
:1012D0004A51400000FF0103E080FF000008086B56
:1012E0006B083612362436060F090F060000181850
:1012F0000000001010003040FF0101001F01011E1E
:1013000000191D1712003C3C3C3C00000000000886
:101310000B000202020000090400000102020000AA
:1013200005240010010524010101042402060524FE
:101330000600010705810310004009040100020AAC
:10134000000000070502024000000705830240007C
:10135000000403090412010002EF02014041233698
:101360008000010102030141726475696E6F204CB7
:101370004C430041424C3133303900F0F89C8E87A9
:1013800083878E9CF8F00000FEFF0303030303072E
:101390000EFCF80000FEFF0303030303070EFCF836
:1013A0000000FFFF00000000000000FFFF0000FE43
:1013B000FF8383838383C7EE7C380000F8FC0E072D
:1013C000030303070EFCF800003F7FE0C08080C0ED
:1013D000E07F3FFFFF01010101010101FFFF00006C
:1013E000FFFF0C0C0C0C1C3E77E3C100007FFFC01C
:1013F000C0C0C0C0E0703F1F00001F3F70E0C0C011
:10140000C0E0703F1F00007FFFC1C1C1C1C1E377D1
:101410003E1C00001F3F70E0C0C0C0E0703F1F00D6
:101420000000000001FFFF01000000D5F08D14A1B5
:10143000C881CFD9F1AF200021007F2C2000307867
:101440003030002C2073656564203D20002C206323
:101450006C69636B73436F756E74203D20002C20A4
:1014600068696464656E54696C6573203D20006D25
:1014700061726B65644D696E6573203D2000050ADD
:101480000F14000000C02010080808081020C00039
:1014900000000000000304081010101008040300EE
:1014A00000000C0E1EFC78F0E8C8E8F8783CDE1F5F
:1014B0000F077070783F1E0F171313170F1E3F781A
:1014C00070705F1311241FBECFEFDAE0DEBFCDBF17
:1014D00011E0A0E0B1E0E0E1F6E302C005900D927A
:1014E000AC33B107D9F726E0ACE3B1E001C01D92FF
:1014F000A03BB207E1F71AE0C2E6DAE004C02197A8
:10150000FE010E94001BC136D107C9F70E94A61335
:101510000C94061B0C94000087FD1DC0082E000CC7
:10152000990B2091480628171906A9F0A4F067FD29
:1015300012C030914906E62F062E000CFF0B3E1715
:101540001F0649F044F06203F00111248E5B994FAD
:10155000E80FF91F4687089587FD1EC0082E000C6E
:10156000990B2091480628171906B1F0ACF067FDD9
:1015700013C030914906462F062E000C550B341728
:10158000150651F04CF06203F00111248E5B994F67
:10159000E80FF91F8685089580E00895682F40912F
:1015A000480680914906489FA001112490E080E000
:1015B000292F30E0241735074CF42E5B394FF90101
:1015C0002685262309F08F5F9F5FF2CF0895E7EE0F
:1015D000F1E0A0E0B8E000800EBC8111012C119771
:1015E000A0FDFDCF0192B9F70DB40895FC018091E3
:1015F000E601882311F13FB7F89482E08093E90077
:101600002091F200822F90E01816190614F481E060
:1016100090E0882339F0289844E64093E501409112
:10162000F1004083222339F02091F200211103C000
:101630002BE62093E8003FBF08958FEF9FEF0895BA
:101640002FB7F89483E08093E9009091E800892F08
:10165000807295FF04C09091F20080E4891B2FBF37
:101660000895E1E0F0E00E94460B319728F06851C0
:101670007C4F8F4F9F4FF9CFAB01FC010E94460B6F
:10168000641775078E079F07C8F30895A5EDB1E0AD
:101690002FB7F8947D918D919C9166B52FBFA89B33
:1016A00005C06F3F18F47F5F8F4F9F4F22E0660F9A
:1016B000771F881F991F2A95D1F708958091DD0122
:1016C00081110DC082E08093D90184E08093DA011A
:1016D0001092DC011092DB0181E08093DD0189ED45
:1016E00091E00895AB01FC010E94460B4150510965
:1016F000E109F10928F068517C4F8F4F9F4FF6CFD9
:10170000AB01FC010E94460B641775078E079F070B
:10171000C8F308954091BE015091BF012091BC01D2
:101720003091BD0142175307B4F49091E8009570D1
:10173000E1F39091E80092FD19C08093F10080914F
:10174000BE019091BF0101968F739927892B19F4DF
:101750008EEF8093E8008091BE019091BF010196C9
:101760009093BF018093BE0181E0089580E00895C9
:10177000DF92EF92FF920F931F93CF93DF93D82EB8
:101780008A01EB017B01E40EF51ECE15DF0559F051
:10179000D7FE12C0FE0184910E948A0B219681110E
:1017A000F4CF0FEF1FEFC801DF91CF911F910F9181
:1017B000FF90EF90DF9008958881EECF0F931F93F5
:1017C000CF93DF931F92CDB7DEB782E0898342E4E7
:1017D00050E06FE073E180E80E94B80B0E945E0B5E
:1017E000DC0112960D911C910115110589F0D801AB
:1017F000ED91FC910280F381E02DBE016F5F7F4F80
:10180000C801099597FD04C0F80100851185ECCF4A
:1018100089810F90DF91CF911F910F9108956150B1
:1018200030F02091F100FC0120830196F8CF289838
:1018300084E68093E5010895AF92BF92CF92DF9244
:10184000EF92FF920F931F93CF93DF936C017B0175
:101850008B01040F151FEB015E01AE18BF08C01706
:10186000D10759F06991D601ED91FC910190F08179
:10187000E02DC6010995892B79F7C501DF91CF913C
:101880001F910F91FF90EF90DF90CF90BF90AF909E
:1018900008958F929F92AF92BF92CF92DF92EF9274
:1018A000FF920F931F93CF93DF936C017B018A010B
:1018B00080910E01882309F458C08091E6018823A5
:1018C00009F453C08091C20180FF05C08091E000FF
:1018D00082608093E000E801B12C8AEFA82E93E0AB
:1018E000892E2AE3922E209711F4BB20B9F10E9491
:1018F000200B811106C0AA94AA20B9F10E94310BD5
:10190000F2CF8C171D0611F00CF08C2F9FB7F894B6
:101910008092E9002091E80025FD02C09FBFE3CF3F
:10192000282F30E0C21BD30BF701815020F04191EA
:101930004093F100FACFE20EF31EBB2021F090920B
:10194000E800B12CEBCF8091E80085FDE7CF9092C5
:10195000E800BB24B394209709F3F3CF5D9884E6A5
:101960008093C101101611063CF081E090E0F60171
:101970009383828310E000E0C801DF91CF911F9133
:101980000F91FF90EF90DF90CF90BF90AF909F901E
:101990008F900895CF93DF931F92CDB7DEB7698301
:1019A000DC01ED91FC910280F381E02D41E050E0FB
:1019B000BE016F5F7F4F09950F90DF91CF91089522
:1019C0000F931F93CF93DF938C01D0E0C0E0F80119
:1019D000EC0FFD1F6491662341F087EE95E00E94B5
:1019E000CA0C892B11F02196F2CFCE01DF91CF9155
:1019F0001F910F91089583E08093E9008091F20098
:101A0000882319F08AE38093E80008950E94200B50
:101A100090E00895CF93DF931F92CDB7DEB7FC011E
:101A20008485958597FD08C02FEF3FEF3587248784
:101A30000F90DF91CF910895CE0101960E94F60A92
:101A4000019719F4898190E0F3CF8FEF9FEFF0CFEA
:101A50000F931F93CF93DF931F92CDB7DEB78C0107
:101A6000FC018485958597FF0BC0CE0101960E94ED
:101A7000F60A019771F4898190E0F80195878487CF
:101A8000F801848595850F90DF91CF911F910F917B
:101A900008958FEF9FEFF1CFFC018485958597FD29
:101AA0000BC09FB7F89482E08093E9008091F20028
:101AB0009FBF90E0019608959FB7F89482E08093CD
:101AC000E9008091F2009FBF90E008952D9A08955B
:101AD000BC0190E080E00C94720B8FB18095807F08
:101AE000669B88601C9B84600895AF92BF92CF92E2
:101AF000DF92EF92FF920F931F93CF93DF936D309E
:101B000079F0C091C401D091C5016A30B1F410924E
:101B1000C7011092C6012896D093C501C093C40195
:101B200081E090E0DF91CF911F910F91FF90EF90B6
:101B3000DF90CF90BF90AF9008954091C601509133
:101B4000C70185E0689FF0011124E15FF14F9A0120
:101B5000C12C80E1E82EA5E070E0CA1621F0CF018B
:101B600001967491FC0110E000E0B72FB170DB2EFC
:101B700020383105D0F4CE01800F911F80349105BB
:101B8000A0F461E081FD64E080FD660F82FD629556
:101B9000887FE89ED0011124A20FF62EA951BE4FD6
:101BA0008C91DD20A9F0862B8C9376950F5F1F4FCB
:101BB00008301105D1F6C3942F5F3F4F86E0C8125D
:101BC000CACF4A5F5F4F5093C7014093C601A8CF69
:101BD000F0948F21E9CFCF93C82F0E946D0D982FDD
:101BE0009C2381E09C1380E0CF91089580E00C94C9
:101BF000E70A2091C9019091C80130E8939FA001A4
:101C00001124E091CB01F091CC01E40FF51FE20F1C
:101C1000F11D80838091CA01882389F09F5F9830ED
:101C200018F49093C80108951092C8012F5F27FD02
:101C300003C02093C90108951092C90108952F5F30
:101C400027FFF7CF1092C9019F5F983050F3109291
:101C5000C801089588E00C94EB0D089590E080E0B1
:101C60000895A0E0B1E0FB012D9190E3821718F0F8
:101C70009F5F821BFBCF91939C919111F5CF0895AB
:101C8000ECE3F1E080E8DF011D928A95E9F7089521
:101C9000FC0101900020E9F73197AF01481B590B77
:101CA000BC0187EE95E00C94490C88E391E00C941C
:101CB000480E8F929F92AF92BF920F931F93CF9334
:101CC000DF93CDB7DEB7A1970FB6F894DEBF0FBE96
:101CD000CDBF19A2423008F44AE08E010F5D1F4FBC
:101CE000842E912CB12CA12CA50194010E94CF1A15
:101CF000E62FB901CA01EA30F4F4E05DD801EE93B1
:101D00008D01232B242B252B79F790E080E0109771
:101D100019F0CD010E94480EA1960FB6F894DEBFCF
:101D20000FBECDBFDF91CF911F910F91BF90AF90AC
:101D30009F908F900895E95CE1CF0C94871A2F92C1
:101D40003F924F925F926F927F928F929F92AF924B
:101D5000BF92CF92DF92EF92FF920F931F93CF9398
:101D6000DF9300D000D0CDB7DEB7282E20914206F9
:101D7000309143063C832B830E94400E80E20E94F8
:101D8000CE0A61E471E00E94310E80E40E94CE0A26
:101D90006DE471E00E94310E69E571E080914606C4
:101DA0000E94310E81E09091CE01903508F080E0E4
:101DB00081958A83B12CA12CD12CC12C312C21945A
:101DC0003092C8018B819C818430910509F4A8C0B0
:101DD0000CF06DC097FD75C0311010C02B813C8197
:101DE0002230310509F485C00CF072C0211531058F
:101DF00009F479C02130310509F478C08091420698
:101E000090914306912C812C029721F47BE3872E3D
:101E100076E0972E40E86CE371E0C8010E94111350
:101E20008C012601559447946CE3662E61E0762E72
:101E3000F12CE12C932D917099839E2DE0E8EE1604
:101E4000F10409F4C5C0F30181913F018225811499
:101E5000910439F120914106E0913B06F0913C0656
:101E60002415150421F0E0913D06F0913E064091C5
:101E70004006941708F452C020913F0650E030E02D
:101E8000BA01620F731FE616F7060CF047C099817E
:101E900091113FC09701241B350BE20FF31FE49112
:101EA0008E2B0E94F90DEFEFEE1AFE0AC6CFEB81E2
:101EB000FC81E630F105A1F10CF48ECF379709F4DF
:101EC0008BCF8CE691E00E94E00C0E94550EFFCF74
:101ED0008B819C818530910579F08730910579F06F
:101EE000039709F08BCF05EC1CE088CF05E014E0E8
:101EF00085CF01EE15E082CF0EE318E07FCF809111
:101F0000410603EB12E0833008F478CF04E11BE0D4
:101F100075CF241B350B2E0D3F1DBFCFE0E0C0CF8A
:101F2000F12CE12C632DC70143E0959587954A95E7
:101F3000E1F70E94AC0AEE2DE770F0E085FF6AC081
:101F4000EC5EFE4FE49187FF02C0FA81EF27822DFD
:101F50008E270E94F90D2FEFE21AF20A30E6E316FF
:101F6000F10401F7F12CE12CC5018D549E4F3C0189
:101F7000C601880F991F880F991FFC01E45CFE4F72
:101F80004F01F301EE0DFF1D8491F70123E0F5955C
:101F9000E7952A95E1F7E80DF91DE081EE2371F050
:101FA000E053FF0B93E0EE0FFF1F9A95E1F79E2D94
:101FB0009770E90FF11DE45EFE4FE4918E2B0E94B5
:101FC000F90DFFEFEF1AFF0A20E2E216F104C9F65D
:101FD00033943FEFC31AD30A80E2A80EB11C98E0F5
:101FE0003912EECE0F900F900F900F90DF91CF919E
:101FF0001F910F91FF90EF90DF90CF90BF90AF9027
:102000009F908F907F906F905F904F903F902F9018
:102010000C94F60D86FF03C0E45FFE4F93CF282F8C
:102020002F77203119F4EC5FFE4F8CCF9FEF920F8A
:10203000993048F498E0299F90011124E20FF31F92
:10204000EC54FF4F7FCFE455FF4F7CCF0F920FB67C
:102050008F939F93EF93FF938091D0018D5F8D3786
:1020600008F08D578093D001E1EDF1E080818E4F33
:10207000808391819F4F918382818F4F828383815F
:102080008F4F8383E5EDF1E080818F5F80838181D5
:102090008F4F818382818F4F828383818F4F838390
:1020A0008FB18F6066991C9B88278F3681F4809151
:1020B000CF01981B963068F0E0E0F8E087E7808376
:1020C000818388E180936000F0936000FFCF90935C
:1020D000CF01FF91EF919F918F910FBE0F901895B7
:1020E0001F920F920FB60F9211248F939F9380919E
:1020F000E1009091E100937F9093E10083FF0FC096
:102100001092E90091E09093EB001092EC0092E3C2
:102110009093ED001092E60198E09093F00082FF1A
:1021200022C093E09093E9009091F200992319F076
:102130009AE39093E8009091C101992341F0909126
:10214000C10191509093C101911101C05D9A90918C
:10215000E501992341F09091E50191509093E501BB
:10216000911101C0289A84FF18C08091E2008E7EF0
:1021700081608093E2008091E1008F7E8093E10096
:102180008091C2018E7E80618093C2019F918F9168
:102190000F900FBE0F901F90189580FFF7CF809182
:1021A000E2008E7E80618093E2008091E1008E7E6D
:1021B0008093E1008091C2018E7E8160E5CF1F9205
:1021C0000F920FB60F921124CF92DF92EF92FF92EF
:1021D0000F931F932F933F934F935F936F937F932F
:1021E0008F939F93AF93BF93EF93FF93CF93DF931F
:1021F000CDB7DEB76C97DEBFCDBF1092E9008091FE
:10220000E80083FF25C068E0CE0145960E940F0CD0
:1022100082EF8093E8008D8987FF39C09091E800B4
:1022200090FFFCCF982F907609F034C19E894F899A
:10223000588D2F89F88C911131C0803861F58091CB
:10224000C3018093F1001092F1008EEF8093E800BB
:102250006C960FB6F894DEBF0FBECDBFDF91CF9165
:10226000FF91EF91BF91AF919F918F917F916F916E
:102270005F914F913F912F911F910F91FF90EF90A0
:10228000DF90CF900F900FBE0F901F9018959EEF8C
:102290009093E800C7CF1092F100D5CF913059F458
:1022A0008111D3CF4130510581F68091C3018D7FDB
:1022B0008093C301CACF933049F48111C6CF413016
:1022C000510519F68091C3018260F2CF953041F437
:1022D0008091E80080FFFCCF20682093E300B5CF19
:1022E000963009F0A9C00B8D1C8D22E01092E900F8
:1022F0001092BF011092BE01F2122EC01092BD01C9
:102300001092BC010E94DE0B1F8299E09983FA8231
:1023100091E09E8390EA98879AEF99872091BE0179
:102320003091BF01275F3F4F3C832B838D831092F9
:10233000E9001092BF011092BE011093BD010093FD
:10234000BC0149E050E0BE016F5F7F4F80E00E941A
:10235000B80B0E94DE0B79CF1093BD010093BC0136
:102360000E945E0BDC0112960D911C910115110566
:1023700009F451C1D801ED91FC910480F581E02D63
:10238000BE016B5E7F4FC8010995009709F03EC101
:10239000F80100851185EACFF3E0FF120EC08F89A6
:1023A000882309F440C0823061F440E867E083E7A5
:1023B00093E10E942C13811148CF81E28093EB00BE
:1023C00047CF813029F440E86BE087E693E1F1CF15
:1023D000833099F70E945E0BDC011296ED90FC9021
:1023E0008E010F5F1F4F6801E114F10479F0D701EE
:1023F000ED91FC910680F781E02DB801C7010995A8
:10240000080F111DF701E084F184EECFD8011C9272
:10241000F60101900020E9F73197BF016C197D09A1
:1024200040E0C601C6CF61E573E1FB01449150E095
:1024300080E80E94B80B09CF973009F4BECF9830DE
:1024400021F481E08093F10000CF993009F0FDCEB6
:10245000837009F0B2CFE4E1F1E081E031E096E38E
:102460002191222371F08093E9003093EB00DF018A
:1024700011972C912093EC009093ED008F5F8730A3
:1024800079F78EE78093EA001092EA008F898093B3
:10249000E601DBCE8B8D9C8D1092E9001092BF017E
:1024A0001092BE019093BD018093BC01898D811172
:1024B00092C08E899D89913A49F4813209F07DCF8D
:1024C00047E050E067E071E080E0B3CF913209F07F
:1024D00074CF833269F48F89988DB0E0A0E0809347
:1024E000030190930401A0930501B0930601ADCEC2
:1024F000803269F48091E80082FFFCCF67E087E0DA
:1025000091E00E940F0C8BEF8093E8009ECE823208
:1025100009F09BCE8F8980930E01EEEFFFE7859146
:1025200094918B3F9C4D51F1E0E0F8E080910701E0
:1025300090910801A0910901B0910A01803B94405B
:10254000A105B105F1F480910E0180FD1AC0EE3FA6
:102550008AE0F80789F587E797E791838083809180
:1025600060008093C00188E19BE00FB6F894A895C5
:10257000809360000FBE9093600067CEEEEFFAE0AC
:10258000D5CF808191818737974709F05ECEA89596
:10259000809160008861809360008091C001809389
:1025A0006000EE3F2AE0F20789F08091FE0A9091E8
:1025B000FF0A9183808349CE808191818737980774
:1025C00051F29093FF0A8093FE0AC5CF1092FF0A42
:1025D0001092FE0A3ACE0E945E0BDC0112960D911B
:1025E0001C910115110509F4E8CED801ED91FC917B
:1025F0000190F081E02DBE016B5E7F4FC80109950F
:10260000811123CEF80100851185EBCF181619062C
:102610000CF41BCED2CEF1E0FF12BECE65E573E125
:1026200004CFFC01DB018591382F307C61F0912DC6
:10263000303819F09A9508F49591831B481B9D93A7
:102640008150E9F705C0481B95919D938150E1F7B2
:102650004111E9CFCF010895EF92FF920F931F939D
:10266000CF93DF93F82E192FE62E042F81E0860FEB
:10267000880F0E948A0B83E00E948A0BCF2DD12FF6
:10268000EC0EFD2EF11CCE15DF05B9F007FF13C0CF
:10269000FE0184910E948A0B182F80E00E948A0B11
:1026A000812321968111EFCFDF91CF911F910F915F
:1026B000FF90EF9008958881EDCF81E0F5CFE7EEB0
:1026C000F5E01382128288EE93E0A0E0B0E084830C
:1026D0009583A683B7838EE191E0918380838FEF0A
:1026E0009FEF95878487E7E3F6E01382128280E309
:1026F00091E091838083E2E4F6E0128213821582F6
:1027000014828CE0868388E0878386E0808794E06B
:102710009187128613861486158611821082E0E551
:10272000F6E090E6DF011D929A95E9F7EBE3F6E01B
:1027300022EA34E13183208322E834E133832283A7
:1027400090E19483858381E086830895CDB7DEB7D9
:102750002697DEBFCDBF789483E084BD83E085BD3E
:1027600081E080936E00E1E8F0E083E08083E0E8C0
:1027700081E08083E1E983E08083E0E981E0808398
:10278000E1EC87E08083E3EC81E08083E0EC82E0B1
:102790008083E2EC81E08083EAE787E080838068E1
:1027A00080831092E6011092C3011092C2018091C1
:1027B000D70081608093D70080EA8093D80089B5E4
:1027C000806189BD89B5826089BD09B400FEFDCFF5
:1027D0000E94310B8091D8008F7C80618093D8005B
:1027E0008091E000807F8093E0008091E1008E7E08
:1027F0008093E1008DE08093E200559A209A81EC6D
:1028000080937C0085B1806F85B984B1877E84B95F
:1028100084B1876E84B95E9A5F988AB1806D8AB9F7
:10282000769A6E9881B3806F81BB899880B38D70E2
:1028300080BB80E58CBD81E08DBD85E090E00E948D
:10284000680D5F9A85E090E00E94680D5E985C9844
:10285000EBE2F4E18BE394E124912EBD00000DB492
:1028600007FEFDCF31968E179F07B1F75C9A81E87E
:1028700080936400809165008160809365000E9470
:10288000F60D80E80E94EB0D882381F05C9885EAC4
:102890008EBD00000DB407FEFDCF5C9A2E982F98D8
:1028A0002D9881E083BF889513BEFCCF84E00E9401
:1028B000EB0D882309F448C02D9884E80E94EB0DA5
:1028C0008823E1F00E94660D88EC90E00E94680D7C
:1028D0002F9882E090E00E94871A8F3F29F06FEFD7
:1028E00082E090E00E948F1A84EF91E00E94680DD0
:1028F0002F9A84E80E94EB0D8111FBCF84E10E94A6
:10290000EB0D8823E1F00E94660D88EC90E00E94B8
:10291000680D2E9882E090E00E94871A882329F0A3
:1029200060E082E090E00E948F1A84EF91E00E94C4
:10293000680D2E9A84E10E94EB0D8111FBCF88EC8B
:1029400090E00E94680DB2CF0E94660D82E090E098
:102950000E949D0E882309F460C03E9A3F9A81E050
:1029600090E00E949D0E482F4470742E81FF11C08C
:1029700041112E9801EF1FEFE8E0EE2EF12C80E4DC
:102980000E94EB0D882309F44BC02E9A2F9A0E94C7
:10299000660D82E390E00E94680D0E946D0D81112A
:1029A000F8CF109290008AE0809391008FEF9FEF14
:1029B0009093F4058093F30587EE91E09093CC011A
:1029C0008093CB011092CA011092C9011092C801E4
:1029D0001092430610924206D12C60914C067091E1
:1029E0004D0680914E0690914F06209142063091FF
:1029F00043066F5F7F4F8F4F9F4F28303105C8F7D9
:102A0000F901EB5FFA4E0C94001B3F163F1681163E
:102A10000C17CF154819F9149F193E983F989FCF6E
:102A2000772029F00430110511F42E9A2F9881E0B7
:102A30000E94E70A980117FF04C022273327201BB2
:102A4000310B27703327C80117FD079673E0959562
:102A500087957A95E1F717FF05C00197D701A21B6B
:102A6000B30B9D01AC015695542F442757954795BC
:102A700049515E4FB0E0A0E02701421A530A8E3F51
:102A8000EFEF9E0709F43BC05A01F4E9AF0EB11C09
:102A90006A0170E060E0FD01E558FC4E4F018F3F98
:102AA000980779F0F401E60FF71FE491F0E01F01B9
:102AB000022E01C0220C0A94EAF7F6016488262847
:102AC000248A2115310581F0F401E60FF71FE49106
:102AD000F0E01F01042C02C0359427940A94E2F719
:102AE000F5016080262820826F5F7F4FFFEFAF1ACD
:102AF000BF0AEFEFCE1ADE0A6835710581F601963E
:102B0000A85ABF4F40585F4FA03BB10509F0B7CF5F
:102B10000E94F60D8FE090E00E94680D0F5F1F4F3E
:102B20000931110509F02BCF772011F02F9A2D983C
:102B300080E991E00E94680D0E94660D81E090E0BE
:102B40000E949D0E80FF25CF8AE090E00E949D0E9E
:102B50009FEF980F9E3F08F01CCF22E330E03093A8
:102B6000C7012093C60128E330E03093C5012093CC
:102B7000C4010BE010E0682F87E396E00E94750D1A
:102B8000C8010E949D0E0F5F1F4F0131110599F77B
:102B90000E94F60D88EE93E00E94680DFACE6093D5
:102BA0004C0670934D0680934E0690934F0605E0B9
:102BB00010E080914C0690914D06A0914E06B09188
:102BC0004F0620914206309143062D7F2530310576
:102BD00009F403CF0196A11DB11D80934C0690937B
:102BE0004D06A0934E06B0934F06F0904A06C09053
:102BF0004B0680E20E94EB0DE82E882321F0FF2097
:102C000009F45BC2FA9480E40E94EB0D4F2D50E072
:102C1000882349F0209148062150330B421753076F
:102C200014F4F394E82E80E80E94EB0D882321F041
:102C3000CC2011F0CA94E82E80E10E94EB0D4C2DBF
:102C400050E0882349F0209149062150330B421768
:102C5000530714F4C394E82E0E942A0E81112FC248
:102C600084E00E94EB0D81112AC2EE2009F445C2D6
:102C700066E970E080E090E00E94720B3EC26093D3
:102C80004C0670934D0680934E0690934F0611E0CC
:102C90001D0D8D2DDD0C990B892F881F8827881F0E
:102CA000809342061092430680E00E949F0E0E948D
:102CB0002A0E8823F1F082E090E0909343068093FF
:102CC00042060E942A0E8823A1F080914C06909122
:102CD0004D06A0914E06B0914F060196A11DB11D63
:102CE00080934C0690934D06A0934E06B0934F06EA
:102CF000E8CF62E370E080E090E00E94720BD12E9A
:102D00006CCE60934C0670934D0680934E06909364
:102D10004F0611E080E80E94EB0D082F8823D1F1C7
:102D200080914106882319F081508093410680E10B
:102D30000E94EB0D882381F180914106833018F4C5
:102D40008F5F8093410680E00E949F0E80E20E9488
:102D5000EB0D8111FBCF80E40E94EB0D8111F6CFCA
:102D600080E80E94EB0D8111F1CF80E10E94EB0D14
:102D70008111ECCF0E942A0E8111E8CF84E00E94DD
:102D8000EB0D8111E3CF64E670E080E090E00E94FB
:102D9000720B04C0012FCBCF0111D5CF80914C060F
:102DA00090914D06A0914E06B0914F060196A11D3F
:102DB000B11D80934C0690934D06A0934E06B093A0
:102DC0004F0666E970E080E090E00E94720B0E947E
:102DD0002A0E182F882309F49DCF0E942A0E8823DB
:102DE000A1F080914C0690914D06A0914E06B091B5
:102DF0004F060196A11DB11D80934C0690934D0680
:102E0000A0934E06B0934F06E8CF83E090E09093F6
:102E1000430680934206E0CD60934C0670934D06C6
:102E200080934E0690934F06E0914106F0E0E25801
:102E3000FB4E1491109245061092470610924606DA
:102E4000E0E5F6E020E6DF011D922A95E9F7109310
:102E50004406611571058105910511F00E94751AEE
:102E600000E1115008F047C0C0904906AC2CB12CCD
:102E700000914806802E912C10E0812F012E000C2D
:102E8000990B8A159B050CF055C0100330011124D5
:102E9000512CB2E0B10FBE83E52C052C000CFF08CD
:102EA000E814F9040CF056C0612F852D0E94AC0A7D
:102EB0008031F9F033243A94310E412C22242A94A3
:102EC000632D852D820D0E94AC0A84FD43942394CA
:102ED000E2E02E12F5CF3394FE81F311EFCF4420C0
:102EE00041F0F701E60DF71DEE5BF94F8685482AA4
:102EF00046865394D1CFE090480620914906E29E41
:102F00007001112460E0E114F10441F00E94261ADE
:102F10009701FF0C440B550B0E949D1AA62FB0E0A1
:102F2000AE5BB94FFD013E961E968C918111E3CFA9
:102F3000008397CFC09E9001112480E0E82FF0E03D
:102F4000E217F3074CF4EE5BF94F96859064968791
:102F50008F5FF4CF1F5F91CF069500934A06C6940A
:102F6000C0924B068FE694E10E94E00C80E20E9442
:102F7000CE0A682F70E090E080E04AE00E94590E8F
:102F80008EE594E10E94E00C80E40E94CE0A682F56
:102F900070E090E080E04AE00E94590E8DE494E1F8
:102FA0000E94E00C6091460670E090E080E04AE00C
:102FB0000E94590E83E494E10E94E00C80904C063C
:102FC00090904D06A0904E06B0904F064AE0C50185
:102FD000B401B7FE0DC06DE287EE95E00E94CA0C09
:102FE00066277727CB01681979098A099B094AE086
:102FF0000E94590E0E94550E712C80914906781638
:1030000008F052C01092CD0100914806A02EB12CBC
:10301000709E80011124005B194FF12CE12C4501B9
:1030200041E0841A9108EA14FB04D0F5D801CD9050
:103030008D0145E050E06EE374E1CE0101960E94FF
:103040007E1A8C2D90E024E0959587952A95E1F7DE
:103050008A3010F5805D8B838C2D8F708A30F0F470
:10306000805D8C83CE0101960E94480EE814F9041D
:1030700020F48BE394E10E94E00C8091CD018F5FFE
:103080008093CD01803120F01092CD010E94550E29
:10309000BFEFEB1AFB0AC7CF895CDDCF895CE1CFBC
:1030A0000E94550E7394A9CF0E94550E84E090E0C3
:1030B000909343068093420690CCE12CA4CD84E00B
:1030C0000E94EB0DB82EB19464E670E080E090E0D1
:1030D0000E94720BEFEFBE12B3940E942A0E811170
:1030E000F3CF6C2D8F2D0E94AC0AE82EF3E0FB1578
:1030F00068F586FD24C0EE24E3948091CE018F5FB5
:103100008093CE01803A10F01092CE01F0924A06E0
:10311000C0924B064091480620914906429F90017B
:10312000112480E0E82FF0E0E217F3070CF096C0DE
:10313000EE5BF94F96859F7796878F5FF3CF40E2DE
:1031400048276C2D8F2D0E948C0AD5CF85FDD3CFBB
:1031500086FF70C080914606909147060196909335
:103160004706809346064E2D4F796C2D8F2D0E9479
:103170008C0AE4FC6EC0612C812C20914906882DBC
:10318000082C000C990B2817190609F00CF450C0F4
:10319000712C92E0592E580C20914806872D072C4F
:1031A000000C990B2817190609F00CF43FC0682D84
:1031B000872D0E94AC0A8F77B9F5EE24EA94E80CCB
:1031C00082E0482E470C99249A94970CAE2C0E2C32
:1031D000000CBB0897FC22C020914806892D092CC1
:1031E000000C990B28171906C9F0C4F0E7FC16C0AB
:1031F000809149068A151B0489F084F06E2D892D73
:103200000E94AC0A86FF0AC084FD08C0482F4F7197
:103210006E2D892D0E948C0A662463949394491024
:10322000D9CFE3945E10CFCF7394B6CF8394A5CF5C
:103230006110A1CF80E40E94CE0A909144069817B5
:1032400008F459CF47E050E05093430640934206BC
:1032500052CF10934306009342064DCFEF2DF0E07E
:103260004C9DE00DF11D1124EE5BF94F86858068C1
:10327000868780E00E949F0EEE2009F49ACC10927F
:10328000CE0164E670E080E090E00E94720B91CC89
:1032900060934C0670934D0680934E0690934F06B4
:1032A00010E081E0111180E00E949F0E64E670E062
:1032B00080E090E00E94720B1F5F1A3091F710E0DF
:1032C000809149061817A8F400E080914806081775
:1032D00070F4612F802F0E94AC0A84FF06C0482F33
:1032E0004F7B612F802F0E948C0A0F5FEECF1F5FF4
:1032F000E7CF86E090E090934306809342060E94D9
:103300002A0E81110DC081E00E949F0E8091CE0196
:103310008F5F8093CE01803A90F31092CE01EFCF71
:103320000E942A0E8111FCCF64E670E080E090E0FC
:103330000E94720B10924306109242064ECB60938D
:103340004C0670934D0680934E0690934F0680E096
:103350000E949F0E0E942A0E811114C080914C067B
:1033600090914D06A0914E06B0914F060196A11D79
:10337000B11D80934C0690934D06A0934E06B093DA
:103380004F06E8CF0E942A0E8823A1F280914C06B6
:1033900090914D06A0914E06B0914F060196A11D49
:1033A000B11D80934C0690934D06A0934E06B093AA
:1033B0004F06E8CF8F929F92AF92BF92CF92DF924B
:1033C000EF92FF92CF93DF93EC01688179818A813C
:1033D0009B81611571058105910521F464E279ED08
:1033E0008BE597E02DE133EF41E050E00E949D1A1C
:1033F00049015A019B01AC01A7EAB1E40E94BC1A41
:103400006B017C01ACEEB4EFA50194010E94CA1AD5
:10341000C60ED71EE81EF91EF7FE06C081E0C81AC8
:10342000D108E10880E8F80AC882D982EA82FB82E2
:10343000C701B6019F77DF91CF91FF90EF90DF90AA
:10344000CF90BF90AF909F908F9008958F929F9252
:10345000AF92BF92CF92DF92EF92FF9260910F01F5
:103460007091100180911101909112016115710507
:103470008105910521F464E279ED8BE597E02DE17A
:1034800033EF41E050E00E949D1A49015A019B012F
:10349000AC01A7EAB1E40E94BC1A6B017C01ACEE5E
:1034A000B4EFA50194010E94CA1AC60ED71EE81EE9
:1034B000F91EF7FE06C081E0C81AD108E10880E8CD
:1034C000F80AC0920F01D0921001E0921101F0921F
:1034D0001201C701B6019F77FF90EF90DF90CF9068
:1034E000BF90AF909F908F90089560930F0170935D
:1034F000100180931101909312010895FB01DC01EA
:1035000002C005900D9241505040D8F70895F999A6
:10351000FECF92BD81BDF89A992780B50895262FD8
:10352000F999FECF1FBA92BD81BD20BD0FB6F894A8
:10353000FA9AF99A0FBE01960895052E97FB1EF48C
:1035400000940E94B41A57FD07D00E94CF1A07FCBE
:1035500003D04EF40C94B41A5095409530952195B3
:103560003F4F4F4F5F4F08959095809570956195AF
:103570007F4F8F4F9F4F08950E94F11AA59F900D86
:10358000B49F900DA49F800D911D11240895B7FF45
:103590000C94BC1A0E94BC1A821B930B0895A1E2E2
:1035A0001A2EAA1BBB1BFD010DC0AA1FBB1FEE1FBD
:1035B000FF1FA217B307E407F50720F0A21BB30B08
:1035C000E40BF50B661F771F881F991F1A9469F784
:1035D00060957095809590959B01AC01BD01CF01E0
:1035E0000895A29FB001B39FC001A39F700D811DDC
:1035F0001124911DB29F700D811D1124911D0895FC
:10360000EE0FFF1F0590F491E02D0994F894FFCF81
:103610000A0100FFFFFFFF00E100000000000001C1
:1036200000000000C1808100000000000000CA0C02
:10363000490C060DFB0C4C0D0A0D280D0000000076
:0C364000750D1C0C2E0E2D0E0D0A000046
:00000001FF
